:1000000000000320250600002D080100C1050000A6
:10001000C7050000CD050000D3050000000000006A
:10002000000000000000000000000000FD040000CF
:10003000690600000000000095050000A50500000D
:100040008106000085060000890600008D0600007C
:100050009106000095060000990600009D0600002C
:10006000A1060000A5060000A9060000AD060000DC
:10007000B1060000B5060000B9060000BD0600008C
:10008000C10600006906000069060000690600005C
:1000900069060000690600006906000069060000A4
:1000A000C5060000C9060000CD060000D10600000C
:1000B000D5060000D9060000DD060000E1060000BC
:1000C000E5060000E9060000ED060000F10600006C
:1000D000F5060000F9060000FD06000069060000B4
:1000E0006906000069060000690600006906000054
:1000F0006906000069060000690600006906000044
:100100006906000069060000690600006906000033
:100110006906000069060000690600006906000023
:100120006906000069060000690600006906000013
:100130006906000069060000690600006906000003
:10014000690600000107000005070000090700001C
:100150000D07000011070000690600006906000095
:100160006906000069060000150700001907000075
:100170001D070000210700002507000029070000D7
:100180002D0700003107000035070000AD16010003
:10019000C5160100DD1601006906000069060000B1
:1001A0006906000069060000690600006906000093
:1001B0006906000069060000690600006906000083
:1001C0006906000069060000690600006906000073
:1001D0006906000069060000690600006906000063
:1003F000690600006906000069060000FFFFFFFFB4
:10040000FFFFFFFFFFFFFFFFFFFFFFFFFEFFFFFFFD
:1004400010B5054C237833B9044B13B10448AFF30E
:1004500000800123237010BD600D0020000000000B
:10046000FCC0050008B5034B1BB103490348AFF3BB
:10047000008008BD00000000640D0020FCC00500E5
:10048000A3F5803A704700BF174B002B08BF134BF2
:100490009D46FFF7F5FF00218B460F461348144A8F
:1004A000121A44F055F90E4B002B00D098470D4B13
:1004B000002B00D098470020002104000D000D48BB
:1004C000002802D00C4818F0F9F843F00BFC20008B
:1004D000290005F0D3FC18F0F5FA00BF0000080071
:1004E00000000000D95D000000000320600D002026
:1004F00000FE0020BD860100000000001EF0040F79
:100500000CBFEFF30880EFF30980816911F8021C3A
:1005100091BB01B590E80F10E047BDE800508CE8B2
:100520000300244B93E80600914208BF704741B98D
:100530001EF0100F10D12049086820F0010008605B
:100540000AE02CE9F00F1EF0100F08BF2CED108A06
:10055000C1F838C081F822E01A6092F82210906B3E
:1005600061F0FF0E1EF0100F08BFB0EC108AB0E86B
:10057000F00F80F309887047104A13689942FAD83F
:1005800001B552F821C00FC8E047BDE80050CCF8D3
:100590000000704701B504F0B7FEBDE80140EFF37D
:1005A000098CBEE701B504F077FEBDE80140EFF32A
:1005B000098CB6E76C00002034EF00E08C470500A2
:1005C000102300F007B8202300F004B8302300F017
:1005D00001B840239C46F0B404AE7546E80801D348
:1005E000EFF309860E4F0FCE0FC70FBC0FC7404663
:1005F000494652465B460FC71DCE3100A60A00D3BE
:1006000004316E0900D248311FC7EFF309806946F3
:10061000EFF3148663C7604601490FF0DFFB00BFAC
:100620000004FF1F72B60948094901600948804764
:1006300009490A4A0A4B9A42BEBF51F8040B42F8D4
:10064000040BF8E762B607488047000008ED00E0B9
:100650000000000095080100D8F905000000002006
:10066000480D002089040000FFF7FEBF3548004711
:10067000354800473548004735480047354800476A
:10068000354800473548004735480047354800475A
:10069000354800473548004735480047354800474A
:1006A000354800473548004735480047354800473A
:1006B000354800473548004735480047354800472A
:1006C000354800473548004735480047354800471A
:1006D000354800473548004735480047354800470A
:1006E00035480047354800473548004735480047FA
:1006F00035480047354800473548004735480047EA
:1007000035480047354800473548004735480047D9
:1007100035480047354800473548004734480047CA
:1007200033480047324800473148004730480047C7
:1007300030480047304800473048004730480047BD
:10074000304800472D080100C1050000FD040000ED
:1007500095050000A5050000F10F0100FD0F010047
:100760000910010015100100211001002D100100D9
:100770003910010045100100511001005D10010009
:100780006910010075100100811001008D10010039
:1007900099100100A51001006906000071200100F8
:1007A00085200100A50E0100D90E01008D22010057
:1007B000C922010069060000F9270100690600004E
:1007C00015280100690600003128010069060000B3
:1007D0004D280100690600000D0F01006928010085
:1007E00069060000852801006906000099200100C3
:1007F000F5160100052301006906000069060000E6
:10080000690600006906000000000000000000000A
:1008100001F0FF01102A2BDB10F0070F08D010F8B1
:10082000013B013A8B422DD010F0070F42B3F6D1B5
:10083000F0B441EA012141EA014122F007047FF0CE
:1008400000070023F0E80256083C85EA010586EA25
:10085000010685FA47F5A3FA87F586FA47F6A5FA61
:1008600087F68EB9EED1F0BC01F0FF0102F007026D
:1008700032B110F8013B013A83EA010313B1F8D118
:100880000020704701387047002D06BF35460338F9
:10089000073815F0010F07D1013015F4807F02BF32
:1008A000013015F4C03F0130F0BC0138704700BF83
:1008B000844641EA000313F003036DD1403A41D36B
:1008C00051F8043B40F8043B51F8043B40F8043B2A
:1008D00051F8043B40F8043B51F8043B40F8043B1A
:1008E00051F8043B40F8043B51F8043B40F8043B0A
:1008F00051F8043B40F8043B51F8043B40F8043BFA
:1009000051F8043B40F8043B51F8043B40F8043BE9
:1009100051F8043B40F8043B51F8043B40F8043BD9
:1009200051F8043B40F8043B51F8043B40F8043BC9
:1009300051F8043B40F8043B51F8043B40F8043BB9
:10094000403ABDD2303211D351F8043B40F8043B59
:1009500051F8043B40F8043B51F8043B40F8043B99
:1009600051F8043B40F8043B103AEDD20C3205D369
:1009700051F8043B40F8043B043AF9D2043208D061
:10098000D2071CBF11F8013B00F8013B01D30B88D3
:1009900003806046704700BF082A13D38B078DD0B1
:1009A00010F003038AD0C3F10403D21ADB071CBF83
:1009B00011F8013B00F8013B80D331F8023B20F8ED
:1009C000023B7BE7043AD9D3013A11F8013B00F826
:1009D000013BF9D20B7803704B7843708B788370AE
:1009E00060467047000000000000000000000000AA
:1009F00000000000000000000000000000000000F7
:100A0000A2EB0300704700BF02780B78012A28BFD1
:100A10009A42F5D16DE9044540EA0104CDE9026747
:100A20006FF0000C4FEA447212B380EA010414F034
:100A3000070F6AD100F0070420F0070004F0030557
:100A400021F007014FEAC505F0E8042314F0040F74
:100A5000F1E804670CFA05F462EA040266EA0406A7
:100A60000AD063EA0403624667EA0407664603E0C5
:100A7000F0E80423F1E8046782FA4CF582EA060400
:100A8000A4FA8CF46CBB83FA4CF583EA0705A5FA4B
:100A90008CF595B950E9022351E9026782FA4CF5C9
:100AA00082EA0604A4FA8CF483FA4CF583EA07057B
:100AB000A5FA8CF52543DBD09CB92DBAB5FA85F49F
:100AC00024F0070427FA04F1DDE9026723FA04F3AE
:100AD00003F0FF0001F0FF01FDE80445A0EB010079
:100AE000704724BAB4FA84F424F0070426FA04F117
:100AF000DDE9026722FA04F202F0FF0001F0FF01D3
:100B0000FDE80445A0EB0100704714F0030F3CD151
:100B100010F0030428D150F8082B51F8083B82FA52
:100B20004CF582EA0305A5FA8CF55DB950F8042C62
:100B300051F8043C82FA4CF582EA0305A5FA8CF5DB
:100B4000002DE8D02DBAB5FA85F424F0070423FA75
:100B500004F122FA04F202F0FF0001F0FF01FDE8C7
:100B60000445A0EB010070474FEAC40420F00300E5
:100B700050F8082B21F0030151F8083B0CFA04F45B
:100B800062EA040263EA0403C9E710F003041AD01E
:100B9000A1EB040120F00300E40750F8042B06D079
:100BA0000FD28B785FFAA2F4E41A06D12BB1CB787E
:100BB0005FFAB2F4E41A00D11BB920465DF8104B7D
:100BC000704701F1040150F8042BCC0721F0030118
:100BD00051F8043B48D824D222F07F4482FA4CF5E5
:100BE00094EA1325A5FA8CF50AD165B951F8043BAE
:100BF00084EA0204B4EB036F0ED150F8042BEBE748
:100C00004FEA132355E035F07F454DD10878FDE8D4
:100C10000445C0F1000070474FEA126203F0FF0381
:100C200047E002EA1C4482FA4CF594EA1345A5FA1F
:100C30008CF50AD165B951F8043B84EA0204B4EB9F
:100C4000034F0CD150F8042BEBE74FEA134330E08D
:100C500015EA1C4528D10B884FEA124229E04FEAD9
:100C6000124203EA1C4324E002F0FF0482FA4CF52E
:100C700094EA1365A5FA8CF50AD165B951F8043BDD
:100C800084EA0204B4EB032F09D150F8042BEBE7FC
:100C90004FEA13630DE015F0FF0F05D10B684FEA23
:100CA000122223F07F4304E04FF00000FDE80445EA
:100CB000704712BA1BBA82FA4CF482EA0304A4FA0F
:100CC0008CF5B5FA85F402FA04F203FA04F34FEA5C
:100CD0001260FDE80445A0EB1360704700000000BF
:100CE0000000000000000000000000000000000004
:100CF00000000000000000000000000000000000F4
:100D000090F800F06DE9024520F007016FF0000C4B
:100D100010F0070491F820F040F049804FF00004F3
:100D20006FF00700D1E9002391F840F000F10800CE
:100D300082FA4CF2A4FA8CF283FA4CF3A2FA8CF306
:100D40004BBBD1E9022382FA4CF200F10800A4FA6D
:100D50008CF283FA4CF3A2FA8CF3E3B9D1E90423C1
:100D600082FA4CF200F10800A4FA8CF283FA4CF3F8
:100D7000A2FA8CF37BB9D1E9062301F1200182FAB2
:100D80004CF200F10800A4FA8CF283FA4CF3A2FAB8
:100D90008CF3002BC6D0002A04BF04301A4612BAC6
:100DA000B2FA82F2FDE8024500EBD2007047D1E9C9
:100DB000002304F00305C4F100004FEAC50514F058
:100DC000040F91F840F00CFA05F562EA05021CBF29
:100DD00063EA050362464FF00004A9E781F0004191
:100DE00002E000BF83F0004330B54FEA41044FEA10
:100DF000430594EA050F08BF90EA020F1FBF54EAAB
:100E0000000C55EA020C7FEA645C7FEA655C00F046
:100E1000E2804FEA5454D4EB5555B8BF6D420CDD17
:100E20002C4480EA020281EA030382EA000083EA9A
:100E3000010180EA020281EA0303362D88BF30BD3A
:100E400011F0004F4FEA01314FF4801C4CEA113190
:100E500002D0404261EB410113F0004F4FEA0333EF
:100E60004CEA133302D0524263EB430394EA050F7A
:100E700000F0A780A4F10104D5F1200E0DDB02FAE9
:100E80000EFC22FA05F2801841F1000103FA0EF27D
:100E9000801843FA05F359410EE0A5F120050EF143
:100EA000200E012A03FA0EFC28BF4CF0020C43FA74
:100EB00005F3C01851EBE37101F0004507D54FF081
:100EC000000EDCF1000C7EEB00006EEB0101B1F5D1
:100ED000801F1BD3B1F5001F0CD349085FEA300017
:100EE0004FEA3C0C04F101044FEA445212F5800F22
:100EF00080F09A80BCF1004F08BF5FEA500C50F1BF
:100F0000000041EB045141EA050130BD5FEA4C0CA1
:100F1000404141EB0101013C28BFB1F5801FE9D2FE
:100F200091F0000F04BF01460020B1FA81F308BF21
:100F30002033A3F10B03B3F120020CDA0C3208DDED
:100F400002F1140CC2F10C0201FA0CF021FA02F1C8
:100F50000CE002F11402D8BFC2F1200C01FA02F138
:100F600020FA0CFCDCBF41EA0C019040E41AA2BF5D
:100F700001EB0451294330BD6FEA04041F3C1CDA25
:100F80000C340EDC04F11404C4F1200220FA04F045
:100F900001FA02F340EA030021FA04F345EA0301EF
:100FA00030BDC4F10C04C4F1200220FA02F001FAB1
:100FB00004F340EA0300294630BD21FA04F0294633
:100FC00030BD94F0000F83F4801306BF81F48011CC
:100FD0000134013D4EE77FEA645C18BF7FEA655C3F
:100FE00029D094EA050F08BF90EA020F05D054EA11
:100FF000000C04BF1946104630BD91EA030F1EBF16
:101000000021002030BD5FEA545C05D14000494119
:1010100028BF41F0004130BD14F580043CBF01F50C
:10102000801130BD01F0004545F0FE4141F47001F2
:101030004FF0000030BD7FEA645C1ABF19461046CD
:101040007FEA655C1CBF0B46024650EA013406BFCE
:1010500052EA033591EA030F41F4002130BD00BF8D
:1010600090F0000F04BF0021704730B54FF480644A
:1010700004F132044FF000054FF0000150E700BFCB
:1010800090F0000F04BF0021704730B54FF480642A
:1010900004F1320410F0004548BF40424FF0000117
:1010A0003EE700BF42004FEAE2014FEA31014FEA5A
:1010B00002701FBF12F07F4393F07F4F81F06051A9
:1010C000704732F07F4208BF704793F07F4F04BFF4
:1010D00041F40021704730B54FF4607401F00045D1
:1010E00021F000411CE700BF50EA010208BF704731
:1010F00030B54FF000050AE050EA010208BF704722
:1011000030B511F0004502D5404261EB41014FF48A
:10111000806404F132045FEA915C3FF4D8AE4FF092
:1011200003025FEADC0C18BF03325FEADC0C18BF75
:10113000033202EBDC02C2F1200300FA03FC20FAC6
:1011400002F001FA03FE40EA0E0021FA02F1144413
:10115000BDE600BF70B54FF0FF0C4CF4E06C1CEA2C
:1011600011541DBF1CEA135594EA0C0F95EA0C0F9D
:1011700000F0DEF82C4481EA030621EA4C5123EA10
:101180004C5350EA013518BF52EA033541F480113F
:1011900043F4801338D0A0FB02CE4FF00005E1FBF2
:1011A00002E506F00042E0FB03E54FF00006E1FB3C
:1011B00003569CF0000F18BF4EF0010EA4F1FF047F
:1011C000B6F5007F64F5407404D25FEA4E0E6D41BF
:1011D00046EB060642EAC62141EA55514FEAC520D0
:1011E00040EA5E504FEACE2EB4F1FD0C88BFBCF54C
:1011F000E06F1ED8BEF1004F08BF5FEA500E50F1FD
:10120000000041EB045170BD06F0004646EA0101C2
:1012100040EA020081EA0301B4EB5C04C2BFD4EBF4
:101220000C0541EA045170BD41F480114FF0000EED
:10123000013C00F3AB8014F1360FDEBF002001F05B
:10124000004170BDC4F10004203C35DA0C341BDCD5
:1012500004F11404C4F1200500FA05F320FA04F0A7
:1012600001FA05F240EA020001F0004221F00041DB
:1012700010EBD37021FA04F642EB06015EEA430E4E
:1012800008BF20EAD37070BDC4F10C04C4F120057E
:1012900000FA04F320FA05F001FA04F240EA020031
:1012A00001F0004110EBD37041F100015EEA430E02
:1012B00008BF20EAD37070BDC4F1200500FA05F222
:1012C0004EEA020E20FA04F301FA05F243EA0203A1
:1012D00021FA04F001F0004121FA04F220EA0200B0
:1012E00000EBD3705EEA430E08BF20EAD37070BDF6
:1012F00094F0000F0FD101F00046400041EB0101D6
:1013000011F4801F08BF013CF7D041EA060195F0B7
:10131000000F18BF704703F00046520043EB030371
:1013200013F4801F08BF013DF7D043EA060370475E
:1013300094EA0C0F0CEA135518BF95EA0C0F0CD069
:1013400050EA410618BF52EA4306D1D181EA0301AF
:1013500001F000414FF0000070BD50EA410606BFA9
:101360001046194652EA430619D094EA0C0F02D1EE
:1013700050EA013613D195EA0C0F05D152EA033633
:101380001CBF104619460AD181EA030101F0004151
:1013900041F0FE4141F470014FF0000070BD41F09A
:1013A000FE4141F4780170BD70B54FF0FF0C4CF474
:1013B000E06C1CEA11541DBF1CEA135594EA0C0F93
:1013C00095EA0C0F00F0A7F8A4EB050481EA030EE0
:1013D00052EA03354FEA013100F088804FEA0333C7
:1013E0004FF0805545EA131343EA12634FEA022295
:1013F00045EA111545EA10654FEA00260EF0004156
:101400009D4208BF964244F1FD0404F5407402D2A7
:101410005B084FEA3202B61A65EB03055B084FEA38
:1014200032024FF480104FF4002CB6EB020E75EB35
:10143000030E22BFB61A754640EA0C005B084FEA5D
:101440003202B6EB020E75EB030E22BFB61A7546DA
:1014500040EA5C005B084FEA3202B6EB020E75EB25
:10146000030E22BFB61A754640EA9C005B084FEA9D
:101470003202B6EB020E75EB030E22BFB61A7546AA
:1014800040EADC0055EA060E18D04FEA051545EA99
:1014900016754FEA06164FEAC30343EA52734FEA42
:1014A000C2025FEA1C1CC0D111F4801F0BD141EABB
:1014B00000014FF000004FF0004CB6E711F4801F20
:1014C00004BF01430020B4F1FD0C88BFBCF5E06F00
:1014D0003FF6AFAEB5EB030C04BFB6EB020C5FEA10
:1014E000500C50F1000041EB045170BD0EF0004E65
:1014F0004EEA113114EB5C04C2BFD4EB0C0541EA97
:10150000045170BD41F480114FF0000E013C90E693
:1015100045EA060E8DE60CEA135594EA0C0F08BF57
:1015200095EA0C0F3FF43BAF94EA0C0F0AD150EA56
:1015300001347FF434AF95EA0C0F7FF425AF1046E9
:1015400019462CE795EA0C0F06D152EA03353FF411
:10155000FDAE1046194622E750EA410618BF52EA8E
:1015600043067FF4C5AE50EA41047FF40DAF52EA62
:1015700043057FF4EBAE12E74FF0FF3C06E000BFFF
:101580004FF0010C02E000BF4FF0010C4DF804CD0C
:101590004FEA410C7FEA6C5C4FEA430C18BF7FEACC
:1015A0006C5C1BD001B050EA410C0CBF52EA430CFA
:1015B00091EA030F02BF90EA020F0020704710F17A
:1015C000000F91EA030F58BF994208BF90422CBF09
:1015D000D8176FEAE37040F0010070474FEA410C02
:1015E0007FEA6C5C02D150EA013C07D14FEA430C20
:1015F0007FEA6C5CD6D152EA033CD3D05DF8040B91
:10160000704700BF8446104662468C4619466346C2
:1016100000E000BF01B5FFF7B7FF002848BF10F199
:10162000000F01BD4DF808EDFFF7F4FF0CBF0120DE
:1016300000205DF808FB00BF4DF808EDFFF7EAFF5A
:1016400034BF012000205DF808FB00BF4DF808ED15
:10165000FFF7E0FF94BF012000205DF808FB00BF0A
:101660004DF808EDFFF7CEFF94BF012000205DF894
:1016700008FB00BF4DF808EDFFF7C4FF34BF0120A1
:1016800000205DF808FB00BF4FEA410C7FEA6C5C6C
:1016900002D150EA013C0AD14FEA430C7FEA6C5C6C
:1016A00002D152EA033C02D14FF0000070474FF0E4
:1016B000010070474FEA410212F5001215D211D510
:1016C0006FF47873B3EB625212D94FEAC12343F03F
:1016D000004343EA505311F0004F23FA02F018BFC1
:1016E000404270474FF00000704750EA013005D18A
:1016F00011F0004008BF6FF0004070474FF000004D
:10170000704700BF4A0011D212F5001211D20DD558
:101710006FF47873B3EB62520ED44FEAC12343F0F7
:10172000004343EA505323FA02F070474FF00000A1
:10173000704750EA013002D14FF0FF3070474FF050
:10174000000070474FEA4102B2F1E04324BFB3F515
:10175000001CDCF1FE5C0DD901F0004C4FEAC00228
:101760004CEA5070B2F1004F40EB830008BF20F00C
:101770000100704711F0804F21D113F13872BCBFC6
:1017800001F00040704741F480114FEA5252C2F11B
:101790001802C2F1200C10FA0CF320FA02F018BF64
:1017A00040F001004FEAC1234FEAD32303FA0CFCB7
:1017B00040EA0C0023FA02F34FEA4303CCE77FEA46
:1017C000625307D150EA01331EBF4FF0FE4040F490
:1017D0004000704701F0004040F0FE4040F400003F
:1017E000704700BF7BB972B90029BEBF00204FF01F
:1017F000004106E008BF00281CBF6FF000414FF019
:10180000FF3001F05FB9ADF1080C6DE904CE00299D
:1018100009DB002B1ADB00F083F8DDF804E0DDE9DA
:10182000022304B07047404261EB4101002B1BDBF7
:1018300000F076F8DDF804E0DDE9022304B0404270
:1018400061EB4101524263EB43037047524263EB49
:10185000430300F065F8DDF804E0DDE9022304B09D
:10186000404261EB41017047524263EB430300F099
:1018700057F8DDF804E0DDE9022304B0524263EBDF
:101880004303704753B94AB9002908BF00281CBF59
:101890004FF0FF314FF0FF3001F014B9ADF1080CFB
:1018A0006DE904CE00F03CF8DDF804E0DDE9022348
:1018B00004B0704738B50022002304460D46FFF7F8
:1018C000BBFE28B920462946BDE8384000F00AB8DA
:1018D000204605F1004100F005F8404261EB41016E
:1018E00038BD00BFD0B50C4B002206460F46FFF7AF
:1018F00031FCFFF707FF0446FFF7B2FB074B00225E
:10190000FFF728FC02460B4630463946FFF76AFAD5
:10191000FFF7F8FE2146D0BD0000F03D0000F04189
:101920002DE9F047089D04468E46002B4DD18A4292
:10193000944669D9B2FA82F252B101FA02F3C2F1C5
:10194000200120FA01F10CFA02FC41EA030E944056
:101950004FEA1C48210CBEFBF8F61FFA8CF708FB77
:1019600016E341EA034306FB07F199420AD91CEB4F
:10197000030306F1FF3080F01F81994240F21C8181
:10198000023E63445B1AA4B2B3FBF8F008FB1033C9
:1019900044EA034400FB07F7A7420AD91CEB0404FE
:1019A00000F1FF3380F00A81A74240F207816444CE
:1019B000023840EA0640E41B00261DB1D440002353
:1019C000C5E900433146BDE8F0878B4209D9002DB7
:1019D00000F0EF800026C5E9000130463146BDE841
:1019E000F087B3FA83F6002E4AD18B4202D38242AB
:1019F00000F2F980841A61EB030301209E46002D5A
:101A0000E0D0C5E9004EDDE702B9FFDEB2FA82F2AE
:101A1000002A40F09280A1EB0C014FEA1C471FFA0C
:101A20008CFE0126200CB1FBF7F307FB131140EAF3
:101A300001410EFB03F0884208D91CEB010103F1C0
:101A4000FF3802D2884200F2CB804346091AA4B282
:101A5000B1FBF7F007FB101144EA01440EFB00FE56
:101A6000A64508D91CEB040400F1FF3102D2A645BB
:101A700000F2BB800846A4EB0E0440EA03409CE75A
:101A8000C6F12007B34022FA07FC4CEA030C20FA07
:101A900007F401FA06F31C43F9404FEA1C4900FA27
:101AA00006F3B1FBF9F8200C1FFA8CFE09FB1811A4
:101AB00040EA014108FB0EF0884202FA06F20BD917
:101AC0001CEB010108F1FF3A80F08880884240F267
:101AD0008580A8F102086144091AA4B2B1FBF9F0AB
:101AE00009FB101144EA014100FB0EFE8E4508D9A6
:101AF0001CEB010100F1FF346CD28E456AD902382B
:101B0000614440EA0840A0FB0294A1EB0E01A1420F
:101B1000C846A64656D353D05DB1B3EB080261EB7D
:101B20000E0101FA07F722FA06F3F1401F43C5E957
:101B3000007100263146BDE8F087C2F12003D8408D
:101B40000CFA02FC21FA03F3914001434FEA1C47CF
:101B50001FFA8CFEB3FBF7F007FB10360B0C43EAC1
:101B6000064300FB0EF69E4204FA02F408D91CEB71
:101B7000030300F1FF382FD29E422DD9023863446F
:101B80009B1B89B2B3FBF7F607FB163341EA03410F
:101B900006FB0EF38B4208D91CEB010106F1FF385E
:101BA00016D28B4214D9023E6144C91A46EA004655
:101BB00038E72E46284605E70646E3E61846F8E6E7
:101BC0004B45A9D2B9EB020864EB0C0E0138A3E730
:101BD0004646EAE7204694E74046D1E7D0467BE711
:101BE000023B614432E7304609E76444023842E789
:101BF00003685A004CBF43F0004323F000431844ED
:101C0000704700BF2DE9F84329B34F1E044615461F
:101C10003E464FF0000808EB060101EBD171491078
:101C200004EBC1094846FFF7E3FF0346C80008304C
:101C30008F42204409D0AB4209D8FFF7D9FF0138C1
:101C4000A8420AD201F10108E5E7AB4205D988456F
:101C500001D04E1EDFE74FF000094846BDE8F8838B
:101C6000012807D0022807D0044B00280CBF1846D3
:101C7000002070470248704702487047392300002F
:101C80003D2300004123000030B5234B83B00446C0
:101C90008D1E3BB301A92846AFF30080E8B101993E
:101CA0002A46FFF7AFFF0146B8B1FFF7A1FF4B6827
:101CB000A064012B2CD0002B01F1040024DBFFF7E2
:101CC00097FF0023C4E913030368002B11DBFFF720
:101CD0008FFF2061002003B030BD00230920236165
:101CE00003B030BD0D4B0E49C91AC91018460191F9
:101CF000D6E7C3F30360FFF7B3FF0028206114BFEA
:101D00000020092003B030BD0123C4E91303DBE741
:101D1000002323610520DEE7000000002CE705001A
:101D2000ACF905000368DA0710B5044606D49B0732
:101D300000F1480009D500F05BFC2368590709D57C
:101D40001A070ED5DB0613D510BD00F049FC236839
:101D50005907F5D404F1D00000F052FC23681A07AB
:101D6000F0D404F5A87000F053FC2368DB06EBD434
:101D700004F5E870BDE8104000F08EBC0920704703
:101D80000346006800B11844704700BF704700BFA9
:101D900070B504460E46316C2046FFF775FF0546C8
:101DA00088B9326C62612369324621460120984726
:101DB0000828F0D0072806D12846316CFFF7E6FF47
:101DC000301D00F001FC40F019FE00BF2DE9F04786
:101DD0000D1DD0F80C80D0F81890074614460FCD92
:101DE000ADF5727D0DF10C0CACE80F000FCDACE839
:101DF0000F000FCDACE80F0095E80F0002AE4FF0DA
:101E0000000E8CE80F00C6F800E020E0336C7B6128
:101E10004FF4F07231467AA8FEF74AFD3B697AAA80
:101E2000394650469847889B73642146CDE900693E
:101E300005463B463A460120C0470446E0B94FF408
:101E4000F0727AA93046FEF733FD082D1AD1316CB5
:101E50003846FFF719FF09345FFA84FA054600286F
:101E6000D4D0B36B73643A46CDE900693B464AF07F
:101E700010010120C04700B1092528460DF5727DEB
:101E8000BDE8F087072DF7D12046316CFFF77EFFC4
:101E900003A800F099FB00BF406C7047F0B5CB6B16
:101EA0000B6401F1040C0E460546BCE80F00F9B0C6
:101EB00001AC0FC4BCE80F000FC4BCE80F000FC496
:101EC0009CE80F004FF0FF3784E80F00009706E012
:101ED0002B696A46294698470828044608D1109974
:101EE0002846FFF7D1FE0028F2D0092079B0F0BDD6
:101EF0006846FFF717FF062CF7D131462846FFF753
:101F000047FF00BFC160D96B826119640022194686
:101F10005CE700BF70B5C66843690B64AEB903697E
:101F20000A4604460D46014602209847072805D078
:101F300008280FD129462046FFF72AFF3046296C92
:101F4000FFF724FF281D00F03FFB0122FFF73EFFB3
:101F500040F054FD40F052FDC2681AB1CA6B0A64E9
:101F6000002233E79AE700BF704700BF836801464D
:101F70000BB1012018477047012912D009D873B955
:101F80000F2A0CD800EB820218465368009A13609F
:101F900070470339012994BF0120022070470220B5
:101FA00070470846704700BF00B585B00A46002359
:101FB00003A900911946FFF7DFFF039805B05DF80C
:101FC00004FB00BF012912D009D873B90F2A0CD81D
:101FD00000EB8200009A126842601846704703398D
:101FE000012994BF01200220704702207047084653
:101FF000704700BF10B584B0002303AC0392009477
:102000000A461946FFF7DEFF04B010BD70B5D36B6A
:10201000136402F1040C05460C46BCE80F00ADF554
:102020000E7D0DF15C0EAEE80F00BCE80F00AEE8CF
:102030000F00BCE80F00AEE80F009CE80F004FF067
:10204000FF368EE80F00169610E0FFF7D3FF21460B
:1020500016A8A847034616AA6946082083B9049B18
:102060009847052806460CD0092809D026996846C5
:10207000FFF70AFE03466A460C2116A8002BE4D09F
:10208000092616A8FFF74EFE30460DF50E7D70BDF1
:102090002DE9F04FCC6C89B01E4654F8043B0694F1
:1020A0000D46174600F00308002E79D01A0C1B04C9
:1020B00005938DF81D200223D2B204EB82048DF823
:1020C0001C302B6DB8F1020F08BFAC6B13F001038D
:1020D0000CD005A9384600F079FB18B9082009B0E2
:1020E000BDE8F08F092009B0BDE8F08FD4F800A05A
:1020F000BAF1000FEDD0019300F008030293022E15
:102100004AD0B4F800A0B4F802900434AB6C29F0C3
:10211000010B0F2138469B44FFF746FF834539D812
:102120002AF001039B44834594BF002001204FEA1D
:10213000490303F002030AF0010A43EA0A03012BF0
:1021400049D0022B32D0002BCCD1B8F1000F02D0F5
:10215000002840F0CD800434D4F800A0BAF1000F7C
:10216000CDD105A9384600F031FB0028BAD1019B3A
:10217000002BB3D00F213846FFF716FF0E21024681
:102180003846FFF737FF38466A4A0F21FFF732FF1C
:102190000720A8E70020CAE7D4F804900834B5E780
:1021A0001B0205930323ADF81C308AE7236823F054
:1021B000004BB8F1000F45D128B1029A002A5CD03B
:1021C000BBF1000F74D0002B00DA04340BF1010BCB
:1021D00004EB8B04C0E7B8F1000F19D1B0B163680C
:1021E0002268991C4FEAD2723FF47CAF05F1580186
:1021F0000133049100F09080201DFFF7C1FD04AB76
:10220000014628463DF0D8FD00285BD10834A3E7FD
:102210000D213846D5F82090FFF7C6FE8145F5D14F
:10222000AB6A9C42F2D12046FFF7E2FC0F21024646
:102230003846FFF7DFFE38462A460021FFF7DAFE70
:10224000072050E70D213846D5F82090FFF7ACFE67
:10225000814501D02368B6E7AB6A9C42FAD10423DA
:102260000022C5E90B23E318C5F828B06B63236887
:10227000002B59DB01230193A8E705F15803CDF8A2
:102280000C8004F1040AB04691461E460EE050460A
:102290000496FFF775FD0022014604AB284609F1BC
:1022A00001090AF1040A3DF087FDE0B9D945EED1F4
:1022B0000D213846FFF778FE049BAC62C5E90803A0
:1022C000062010E781460D213846FFF76DFEB9F173
:1022D000020F286225D12B46049A43F82C2F6B62FB
:1022E000AC620620FFE646462368DDF80C806AE70C
:1022F0002046FFF77DFC04340246AC6328461446B2
:102300003DF0B4FD00283FF4EDAE384622460F21E3
:10231000FFF770FE0720E6E60D213846FFF744FE82
:102320002862049B6B62DBE70BF1010004EB800089
:102330007AE700BFDDFF03000023A9E60123A7E63B
:102340000223A5E62DE9F0430646C3B015461C4618
:10235000042900F2BF80DFE801F09E57BD2D030085
:10236000002C40F0B780102A00F2B4800368D80631
:1023700000F1F98020AF384600F098F9B46B394687
:1023800000234FF0010C0CFA03F22A42204603F11D
:10239000010303D050F8042B0A600446042B01F11A
:1023A0000401F0D13846B46300F076F9002043B060
:1023B000BDE8F083032C40F08D8094B204EB12430F
:1023C000102B4FEA124500F2858003681F0700F1C9
:1023D000D28020AF384600F03DF9B26B07EBC50163
:1023E00054B10B46D01A01EBC401E4001D5843F868
:1023F000045B8B42FAD122443846B26300F008F9FC
:10240000002043B0BDE8F083012C4FEA124895B29A
:102410005CD0052C5ED108EB0509B9F1200F59D825
:10242000B8F10F0F79D9A946002D40F08A80B36B1F
:102430006DB320AF4FF0000907EBC807043F03EB73
:10244000C50553F8041B47F8041FAB42F9D1B9F195
:10245000000F0FD06F464146102938BF102107EBFF
:10246000C101843903EBC90553F8040B41F8040F8B
:10247000AB42F9D1012C00F08680B8F10F0FB563A3
:1024800047D9B9F1000F02D0684600F0B9F8002032
:1024900043B0BDE8F083ECB9806B23461FFA82FCA1
:1024A0000124371D04FA03F212EA0C0F014604D08E
:1024B00051F8042B47F8232008460133102BF1D1A3
:1024C00015F40055E3D1B063284604E008EB05039A
:1024D000102B03D9022043B0BDE8F083B8F10F0FF1
:1024E000F8D83368DA0706D5304623F0030340F8FE
:1024F000483B00F079F820AF384600F075F8B36B30
:10250000002D97D11D460435B563384600F068F8B4
:10251000BDE720A800F06CF8B3E7B9F1100F40D97F
:10252000A9F110093368D90708D523F00103304613
:1025300043F0020340F8483B00F05EF8B9F1000FA9
:1025400032D033685A0720D4B8F10F0F25D96F461F
:102550003846C8F1100500F057F8002DB36B7FF72F
:102560007AAF20AF68E723F01003336006F5E87018
:1025700000F09CF8FEE623F00803036000F5A87065
:1025800000F068F825E720AFBDE7304623F00403EC
:1025900040F8D03B00F038F8D6E720A800F02CF83F
:1025A000D5E74FF00009BDE7B8F10F0F3FF63FAF99
:1025B00020AF384600F020F8B36B002D7FF43AAF1F
:1025C000384600F015F862E700F1340191E8380070
:1025D0009C46A6464CF8045D90E8FF0FE54600BD1A
:1025E00090EC210B704700BF80EC210B704700BFBF
:1025F00090EC200B704700BF80EC200B704700BFB1
:10260000D0EC200B704700BFC0EC200B704700BF20
:10261000F0EC0201F0EC0211F0EC0221F0EC0231DE
:10262000F0EC0241F0EC0251F0EC0261F0EC0271CE
:10263000F0EC0281F0EC0291F0EC02A1F0EC02B1BE
:10264000F0EC02C1F0EC02D1F0EC02E1F0EC02F1AE
:10265000704700BFE0EC0201E0EC0211E0EC022167
:10266000E0EC0231E0EC0241E0EC0251E0EC02610E
:10267000E0EC0271E0EC0281E0EC0291E0EC02A1FE
:10268000E0EC02B1E0EC02C1E0EC02D1E0EC02E1EE
:10269000E0EC02F1704700BFB0FC0181B0FC019199
:1026A000B0FC01A1B0FC01B1704700BFA0FC0181EA
:1026B000A0FC0191A0FC01A1A0FC01B1704700BFEA
:1026C000EC4600B52DE900502DE9FF1F4FF0000347
:1026D0002DE90C0001A9FFF7E1FBDDF840E012B0A5
:1026E000704700BFEC4600B52DE900502DE9FF1FF3
:1026F0004FF000032DE90C0001A9FFF70BFCDDF8FA
:1027000040E012B0704700BFEC4600B52DE9005024
:102710002DE9FF1F4FF000032DE90C0001A9FFF781
:102720001BFCDDF840E012B0704700BFEC4600B57E
:102730002DE900502DE9FF1F4FF000032DE90C009B
:1027400001ABFFF7DFFBDDF840E012B0704700BFE0
:10275000EC4600B52DE900502DE9FF1F4FF00003B6
:102760002DE90C0001AAFFF751FCDDF840E012B0A2
:10277000704700BF027A03467AB9427AA2B1416833
:10278000013A10B44272086803220C1D1A72020248
:102790005C60000E10BC1A6070470068013A1A7243
:1027A00002021A60000E7047B020704700B585B075
:1027B000002303AA009219460C22FFF7DDFB0398C1
:1027C00005B05DF804FB00BFF0E700BF2DE9F04362
:1027D000054685B00E464FF000083046FFF7CAFFA9
:1027E000B028044600F0BA80070620D500F0F003B8
:1027F000802B4DD0902B36D0A02B60D0B02B74D036
:10280000C02B00F08B8000F0F803D02B0BD100F030
:1028100007020132052342F4002201212846FFF776
:1028200091FD0028D9D0092005B0BDE8F0838300D0
:10283000DBB21F1D0DF10C0900231946CDF80090E5
:102840000D222846FFF798FB039BCDF80090600609
:102850004CBFDF1BFF1800230D22194628460397A3
:10286000FFF7B0FBB9E700F00D030D2BDBD003AF92
:10287000002300F00F02194600972846FFF77CFB63
:10288000002300970D2219462846FFF79BFBA4E77B
:102890003046FFF76FFF24022043B0F5004FC2D04F
:1028A00004010023A2B219462846FFF74BFD002879
:1028B000B9D114F4004F18BF4FF001088DE7C2439F
:1028C00002F007034FF47F621A41010702F47F62AE
:1028D0004FF0000348BF42F4804219462846FFF7F4
:1028E00031FD00283FF479AF9DE7B1283BD0B228F5
:1028F00000F09380B32841D000F0FC03B42B92D0B9
:1029000000F007020132012342F400221946284652
:10291000FFF718FD00283FF460AF84E7C6284AD0CF
:10292000C72854D000F0F803C02B63D0C82868D063
:10293000C9287FF478AF3046FFF71CFF020300F090
:102940000F0002F4702201300243012105232846C2
:10295000FFF7F8FC00283FF440AF64E7B8F1000F40
:1029600018D0002060E73046FFF704FF0246002839
:102970003FF459AF10F0F003C8D054E73046FFF7EA
:10298000F9FE020300F00F03013302F470221A4330
:102990000123BBE703AC43460E2241460094284680
:1029A000FFF7EAFA009443460F2241462846FFF714
:1029B00009FB404638E73046FFF7DCFE020300F033
:1029C0000F03013302F470221A4303239EE73046BB
:1029D000FFF7D0FE024600283FF425AF10F0F003C9
:1029E0007FF421AF04212846FFF7ACFC00283FF418
:1029F000F4AE18E700F00F020132032342F4202264
:102A000084E73046FFF7B6FE00F0F00200F00F0357
:102A10001032013343EA023297E700230DF10C092B
:102A20000D221946CDF800902846FFF7A5FA30464A
:102A3000FFF7A0FE02064FF002040CD5039B00F046
:102A40007F00A040184403903046FFF793FE030632
:102A500004F10704F2D4039BCDF8009000F07F024C
:102A6000A24003F501731A440023039219460D2274
:102A70002846FFF7A7FAB0E610B5C26C536884B0D9
:102A80004FF0030C08321C0208461B0E01A90194EA
:102A900002928DF80CC08DF80D30FFF797FE04B050
:102AA00010BD00BF08B5FFF78FFE806C08BD00BFEA
:102AB00008B5FFF789FEC06CC379023300EB8300D1
:102AC00008BD00BF704700BF00207047002070475E
:102AD000002070470020704700207047704703684F
:102AE00053F8683C184470477047036853F8743CC7
:102AF0001844704708B5024800F0F2FC002008BDF9
:102B0000800D002010B50446006808B116F02EF8BC
:102B1000204610BD70B5044621BB1368236019BB65
:102B2000506953F8843CE05009BB9069234643F850
:102B3000840FF1B902F10C000568C4F884504668AE
:102B400055F8840C1E50B1B904321368236053F851
:102B5000843C5268E2508B0702D5204613F0B0F84F
:102B6000204670BD054BD9E704480023DBE7044845
:102B7000DCE70448E0E7044AE7E700BF5C450500FE
:102B80005C460500C8440500C0440500002202213F
:102B9000FFF7C0BFA0F18400F8E7D0F800C0ACF1A7
:102BA000240CDCF800C06044F0E710B50446FFF7E1
:102BB000EDFF2046882115F0D7FF204610BDA0F17B
:102BC0008400F2E7D0F800C0ACF1240CDCF800C0BF
:102BD0006044EAE70A460021FFF79CBF10B5084CA5
:102BE00042F2040241F2160120464FF4405300F035
:102BF00063FA2046034A0449BDE8104015F05CBD65
:102C0000800D0020000000200D2C000013B50446AC
:102C10001F4BC4F8983300F56670019015F004F965
:102C2000019815F087F904F5537032F0D1FD04F5E1
:102C30004D7032F0CDFD04F5477032F0C9FD04F55A
:102C4000417032F0C5FD04F53B70FFF75BFF04F502
:102C5000347015F0BCF804F5007000F0B7FC04F512
:102C60009C7000F0B3FC04F59A7000F0E8FE04F5E7
:102C70008E70FFF747FF2046064B40F88C3F12F05E
:102C80004FFF2046FFF782FF204602B010BD00BF75
:102C9000286E0500606D0500D1F80330C0F8783368
:102CA000704730B50C46D1F80320D1F80730D4F87E
:102CB0002F100546D4F82B008BB0CDE90801D4F8CD
:102CC0002300D4F82710CDE90601D4F81B00D4F86E
:102CD0001F10CDE90401D4F81300D4F81710CDE982
:102CE0000201D4F80B00D4F80F10CDE9000105F56E
:102CF0009A7000F083FED4F80B20D4F80F30C5E9A9
:102D0000DA23D4F81320D4F81730C5E9DC230BB04C
:102D100030BD0000F0B58DB000F59A7104466846EC
:102D200000F0BCFE1D496A460CA80B4652F8045B35
:102D300041F8045B8242F9D119491E685F68C1F805
:102D400003603322082048700A70C1F807709E683B
:102D5000DF68C1F80F70C1F80B601E695F69C1F8C8
:102D60001770C1F813609E69DF69C1F81F70C1F860
:102D70001B601E6A5F6AD4F88800C1F82360C1F83E
:102D800027709E6ADF6A0368C1F82B601B69C1F86F
:102D90002F700DB0BDE8F040184700BFF0110020C3
:102DA0002012002010B5044600F5667015F03CF8BE
:102DB0000123A4F8923310BDF0B590F8933385B099
:102DC00004465BB900F59C7000F0ACFDC4F87C03D0
:102DD00004F5007000F0A6FDC4F88003D4F8780371
:102DE000FEF760F902460B46D4F88003CDE90223D2
:102DF000FEF758F904F59A75CDE90001DDE90223E3
:102E0000284600F0C0FED4E9DC2306460F46D4E98C
:102E1000DA01FDF7E7FF02460B4630463946FEF77A
:102E2000C3FAFEF78FFC014604F5347014F062FF1C
:102E30000A49D4F8880002234B700B22D4F87C3363
:102E40000A70C1F80330D4F88033C1F80730036842
:102E50001B6905B0BDE8F040184700BF58110020BD
:102E600070B5144C1449052305463726E01C6370E1
:102E7000267042F0CBF8114904F1080042F0C6F880
:102E800005F53B7013F0B0F9014604F1150042F06E
:102E9000BDF8284612F098FA014604F1230042F0EA
:102EA000B5F8D5F888000368324621461B69BDE8AD
:102EB000704018478E110020D8460500DC460500FA
:102EC00038B500F532750446284610F0CDF8B0FA52
:102ED00080F14909284604F5337410F0A7F820461C
:102EE00010F0C2F8B0FA80F149092046BDE8384038
:102EF00010F09CB830B590F8935389B00446D5B91A
:102F000000F59C7000F0FDFC04F5007000F0F9FC89
:102F10000A4B0B4A0494CDE905350023CDE9022381
:102F2000084B009304AB0ECB04F5667014F0A5FFBC
:102F3000012384F8933309B030BD00BFA52D0000F4
:102F400040420F00492F000010B4D0E9013201685F
:102F5000541001EB6200D20748BF0A595DF8044BD8
:102F600048BFD3581847F8B50B460C4653F8081B12
:102F700062689942054600680CD10AB132F058FCEB
:102F800063682A686B600021D15422680023636063
:102F90001370F8BDC5E9001205F10807B842A26830
:102FA00018BFAE68AA6008BF002010B12060A660FC
:102FB000EBE72360E9E7000070B51E4D04236B705A
:102FC00090F893332B2686B004462E705BB1032312
:102FD000AB70D4F8880003681B693246294606B0F6
:102FE000BDE87040184700F59C71684600F03EFC53
:102FF000694604F54D70FFF7B6FF684632F0E8FB0E
:1030000004F50071684600F031FC694604F5537020
:10301000FFF7A9FF684632F0DBFBD4F83413E81C55
:1030200041F0F4FFD4F84C1305F1170041F0EEFF26
:10303000CFE700BFC511002070B590F893231C4D59
:103040002B26032386B004462E706B7052B1AB70F2
:10305000D4F8880003681B693246294606B0BDE8EB
:103060007040184700F59C71684600F0BBFB69464C
:1030700004F54170FFF777FF684632F0A9FB04F5CD
:103080000071684600F0AEFB694604F54770FFF733
:103090006AFF684632F09CFBD4F80413E81C41F048
:1030A000B5FFD4F81C1305F1170041F0AFFFCFE7CF
:1030B00063110020000000002DE9F0472DED048B86
:1030C0008CB00446884616461F4610F099FE0B90B9
:1030D00012F018F85E490B9A216003465D492046BC
:1030E00012F06CFA5C48206000F580700025C4F88E
:1030F00084004FF0110904F18C0013F017FA4A46CE
:103100002946C4F81C5104F5907041F021FB534945
:10311000A4F83251002046A3D3E90023CDE90801E9
:103120009FED458B46A1D1E900019FED479BCDE97D
:103130000601CDE904238DED028B8DED009B04F596
:103140009A7000F035FCC62344F2180244F21901CB
:1031500004F59C7000F0E0FA04F5327ACC2344F2D6
:10316000180244F2190104F5007000F0D5FA414646
:10317000504604F53378C4F8C8520CF027FA3146AB
:10318000404604F53476C4F8CC520CF01FFA3946A8
:10319000304614F0FEFD03230922C4E9B923294671
:1031A0004A46C4F8EC5204F53C7041F0D1FA04F5FB
:1031B0004373C4E9C13504F54973C4E9C73504F55F
:1031C0004F73C4E9CD3504F55573C4E9D335A4F87C
:1031D000025384F80C5384F8245384F83C5384F845
:1031E000545304F5667014F06BFE294650460FF0F8
:1031F0001DFF404601210FF019FF3046184914F019
:1032000095FD30464FF07C5114F074FD00232046AC
:1032100084EDDA9B84EDDC8BC4F87833C4F88853F2
:10322000C4F890530CB0BDEC048BBDE8F08700BF30
:103230009A9999999999B93F0000000000000000FF
:103240007B14AE47E17A843F000000000000594043
:103250007C6C0500C04405005C4505000000E03FB3
:10326000CDCCCC3D90F89233BBB1D0EDDF7A90ED70
:10327000E07AF5EE407ADFED097AF1EE10FAB4EE7D
:10328000677A14BF01230023F1EE10FA80F890331F
:1032900014BF0123002380F89133704700C07FC41E
:1032A00070B5164D11232B7000236B70FFF7DAFFFA
:1032B00090F8902390F891330446EAB1002B0CBFAC
:1032C00002210021A970D4F88413C5F8031004F575
:1032D0003470D4F87813C5F80710EA722B7314F021
:1032E00017FDC5F80D00D4F8880004490368BDE84F
:1032F00070401B69112218470221E3E75312002096
:1033000010B4D0F8E8420C708A70D0F888301A688F
:103310001469D0F8E822184623465DF8044B184794
:1033200010B50446C0F8841388B000F5667079B90A
:103330000F4B104A0494CDE905310023CDE9022357
:103340000D4B009304AB0ECB14F097FD08B010BDED
:1033500014F06AFD04F5327000210FF067FE0121C0
:1033600004F5337008B0BDE810400FF05FBE00BF39
:10337000C12E000020A10700492F000010B592B017
:103380000022244B009301926C4603CC224BC3F8DD
:1033900005102249C3F80100CDE9021203CCC3F89D
:1033A0000E101F49C3F80A00CDE9041203CCC3F87C
:1033B00017101C49C3F81300CDE9061203CC19629B
:1033C0001949D861CDE9081203CCC3F8291017496F
:1033D000C3F82500CDE90A1203CCC3F83210144912
:1033E000C3F82E00CDE90C1203CCC3F83B101149F1
:1033F000C3F83700CDE90E1203CC59640E491864A6
:10340000CDE91012224603CAC3F84900C3F84D1093
:1034100012B010BDA132000004000020F52E000003
:10342000B92D000039300000B92F0000612E0000D6
:10343000992C0000A32C0000152D000030B593B08E
:10344000044624490022684612F09EFE22490022CA
:1034500006A812F099FE214900220CA812F094FE51
:1034600006AA0CAB6946204611F0FCFF0CA8FFF73A
:1034700049FB06A8FFF746FB68462546FFF742FBD7
:10348000204611F04BFF04F53B71204612F030F856
:1034900055F88C3B53F8840C235820445B6F9847B5
:1034A0000146284612F090FA41F6AB61284612F028
:1034B000C7FA0121284612F0D5FE2846012112F054
:1034C000A3F94FF0FF31284613B0BDE8304012F0A9
:1034D000B9B900BFE9460500F746050005470500F4
:1034E00070B50021C0B00446FFF71AFF2046FFF771
:1034F000A5FF354E002500212046FFF711FF0021D2
:1035000004F18C0013F046F80368C4F8880004F551
:103510008E711B6C984701212046FFF701FFD4F8FC
:103520008800D4F8E822036869465B699847002858
:10353000C4F88C031ADD9DF80020D4F8E8128A4202
:103540000BD19DF80130D4F8E422934227DB01220D
:1035500069462046FFF7D4FEE1E7D4F88800036807
:10356000521A5B69694498470028EADCD4F888005D
:1035700003689B68984720460021FFF7D1FE002191
:1035800004F5347084F8935314F0B4FB04F59C7084
:1035900000F0F2F904F5007000F0EEF9ABE703EB90
:1035A000C3033344D3F80120D3F8050000F001032E
:1035B0000AB9002BCBD0411004EB60000BB163586B
:1035C0009A5869469047AAE7040000200F4B10B5AF
:1035D00004460360406810B10368DB68984704F153
:1035E000A80032F0F5F804F1900032F0F1F804F19F
:1035F000780032F0EDF804F1600032F0E9F804F1FF
:10360000480032F0E5F8204610BD00BF64470500D1
:1036100010B50446FFF7DAFF2046C82115F0A4FADA
:10362000204610BD00F1080373B50360D1E90053D3
:103630000446EE181DB916B10C4827F011FE0F2BE9
:10364000019307D9002201A9204632F09DF8019B81
:103650002060A36032462946206832F0F5F8019BCD
:10366000226863600021D15402B070BD114705008B
:1036700000F1080373B5044603600D46D9B108464E
:10368000FDF73EFB0F2805EB0006019007D900224D
:1036900001A9204632F078F8019B2060A3603246F1
:1036A0002946206832F0DAF8019B22686360002125
:1036B000D15402B070BD014827F0D2FD114705007A
:1036C0001FB5044608460391FDF71AFB039B0090C3
:1036D00062680021204632F0F5F904B010BD000008
:1036E00010B51522044630211D3041F031F810226A
:1036F000302104F10D0041F02BF8302104F13200AB
:10370000142241F025F804F148000249BDE81040B8
:10371000FFF7D6BF636F05002DE9F3411E462B4B23
:10372000036004461820CDE9002115F0EFF9DDE92A
:103730000021054614F0A2FA04F15003A36404F139
:1037400068020023C4E9182304F18002C4E91E239F
:1037500004F19802C4E9242304F1B002C4E92A2345
:10376000E36484F8503084F8683084F8803084F85A
:10377000983084F8B030C4E9015526732046FFF72D
:10378000AFFF04F16008A068114914F08DF904F14D
:10379000780740460F49FFF793FF04F1900638463B
:1037A0000D49FFF78DFF04F1A80530460B49FFF7DF
:1037B00087FF28460A49FFF783FF0222012320469C
:1037C000C4E9302302B0BDE8F08100BF64470500C2
:1037D000A08601003B470500434705004B47050015
:1037E0005247050073B50C4605460846FFF778FFBB
:1037F0002246492302F80D3F0026217BA06800964F
:10380000012314F07DF94FF4967015F0B3F91523E8
:10381000217BA068009604F11D0214F091F9637FEA
:10382000012B14D1E38B6386236A6363636AA3630A
:10383000A36AE363E36A2364238EA4F8443004F1AB
:1038400032012846FFF714FF284602B070BDFE2B58
:1038500005D104F178012846FFF7E4FEF4E7FF2BD9
:103860000CBF04F1600104F19001F4E773B50C465C
:1038700005460846FFF734FF44F254125323E28111
:10388000002645F25452217B63732282A37404F113
:103890000D020623A068009614F032F94FF49670DA
:1038A00015F068F91523217BA068009604F11D022C
:1038B00014F046F9637F012B14D1E38B6386236AEE
:1038C0006363636AA363A36AE363E36A2364238E87
:1038D000A4F8443004F132012846FFF7C9FE284617
:1038E00002B070BDFE2B05D104F178012846FFF728
:1038F00099FEF4E7FF2B0CBF04F1600104F1900185
:10390000F4E713B50446FFF7EBFE2246522302F814
:103910000D3F00230093217BA068012314F0F0F8F1
:1039200002B010BD13B50446FFF7DAFE0023009382
:10393000217BA068152304F11D0214F001F9637FB7
:10394000012B14D1E38B6386236A6363636AA363E9
:10395000A36AE363E36A2364238EA4F8443004F18A
:1039600032003FF073F8FDF7EDFE02B010BD0148E4
:10397000FBE700BF000080BF13B50446FFF7B0FEB1
:103980005323637346F26C53E38147F2650323824A
:1039900000230093217BA068052304F10D0214F09D
:1039A000AFF84FF4967002B0BDE8104015F0E2B8E1
:1039B000D0B50446402016461F4615F0A7F8DDE9AD
:1039C0000423C0E90223DDE90623C0E90423DDE97D
:1039D0000823C0E90623DDE90A23C0E90823DDE95D
:1039E0000C23C0E90A2300220023C0E90067C0E9D4
:1039F0000C23C0E90E2320602046D0BD30B51D4603
:103A00000368DDE90301C3E90201DDE90501C3E95A
:103A10000401DDE90701C3E90601DDE90901C3E9A4
:103A20000801DDE90B011446C3E90A010020002169
:103A3000C3E90045C3E90C01C3E90E0130BD10B56F
:103A40000446006810B1402115F08EF8204610BDE4
:103A5000114B0A6810B51A604A685A608A689A6001
:103A6000CA68DA600A691A614A695A618A699A61A0
:103A7000CA69DA610A6A1A624A6A5A628A6A9A6288
:103A8000CA6ADA6203F13001024653F8044B42F885
:103A9000044B8B42F9D110BD9512002010B504469D
:103AA00007480968FFF7D4FF234600F1300250F8B9
:103AB000041B43F8041B9042F9D1204610BD00BFFF
:103AC000651200202DE9D04F2DED028B04461946DA
:103AD0001046DDE90A23FDF785F9D4E9062382467D
:103AE0008B46FDF737FBD4E9006741EC180B5246D3
:103AF0005B4630463946FDF72DFBD4E90E23FDF732
:103B000073F980468946C4E90E89D4E90C235046EE
:103B10005946FDF767F932463B46FDF745FCD4E9C7
:103B20000823FDF717FBD4E90A2306460F46404653
:103B30004946FDF70FFB53EC182BFDF755F90246EC
:103B40000B4630463946FDF74FF9D4E90267804607
:103B5000894602460B4630463946FDF76DFD50B9A1
:103B6000D4E9046742464B4630463946FDF782FDAC
:103B700008B946464F46BDEC028B30463946C4E98B
:103B80000CABBDE8D08F0068FFF79CBF10B5054CAB
:103B9000204615F069FC2046034A0449BDE8104060
:103BA00014F08ABD64120020000000208D940100F2
:103BB00008B5014610B1132001F0ECFE002008BD4D
:103BC00008B5EFF305832BB9EFF3108313B9EFF3C7
:103BD000118333B16FF0050000F005FA6FF00500B6
:103BE00008BDDFF808C000DFFAE700BFB13B000006
:103BF000EFF310832BB9EFF31180003818BF0120C9
:103C000070470120704710B520B10378F32B01D124
:103C1000002906DA6FF0030102F028FA6FF00300C2
:103C200010BD0C3050E8003F23EA010240E80024B8
:103C300004B1F7E71846F3E738B50546A0B1846844
:103C400002686CB114F0030302D1C1680F2926D8B1
:103C50006FF00801002002F009FA0024204638BD68
:103C6000C368002BF4D11546104BD3F8900078B1FF
:103C700000F083FC0446A0B10123A3700023C4E933
:103C80000233F322094B2270094A65605A66E5E760
:103C9000D3F880000122102100F0FCFBEAE7154672
:103CA000EBE76FF0040102F0E1F9D7E758000020DC
:103CB0008D3D000070B5054610B10378F32B07D099
:103CC00028466FF0030102F0D1F96FF0030070BDD8
:103CD000836863B1284601F05DFC00226FF00201A9
:103CE00001F008FDA8680028F4D101F0D7FCAB78FA
:103CF000002613F001032E700FD0094BD3F890402B
:103D0000294624B1204600F052FC3046DFE7D3F8C4
:103D1000800000F0F3FB2046D9E71846D7E700BF44
:103D200058000020930710B502F0010422D400F1DE
:103D30000C0384B153E8000F00EA01028A4203D069
:103D4000BFF32F8F002005E020EA010243E80024A2
:103D500004B1EFE710BD53E8000F084203D1BFF3F1
:103D60002F8F002005E020EA010243E8002404B17F
:103D7000F1E7EFE7C06801EA00031CB18B4218BF0E
:103D80000020E7E7002B08BF0020E3E7F8B58468D0
:103D9000054604B9F8BD94F82320616AA76828464F
:103DA000FFF7C0FF064638B1204601F0FCFB0022B9
:103DB0003146204601F09EFC3C46EAE7F8B50D4648
:103DC00017461E46044620B10378F32B01D1002983
:103DD00007DA20466FF0030102F048F96FF00300A4
:103DE000F8BDFFF79FFF0028FAD186B13146432086
:103DF00001F0D0FD40B1074B5E692046314601F02D
:103E0000B7FB756286F823706FF00100E8E76FF08A
:103E10000200E5E7580000202DE9F041064620B1F8
:103E20000378F32B01D1002909DA6FF00301304642
:103E300002F01CF96FF003052846BDE8F08100F19F
:103E40000C0353E8002F42EA010543E8005000B19B
:103E5000F7E7B4681CB9204601F020FCECE794F8C1
:103E60002320616AD4F808803046FFF75BFF0746DD
:103E700078B194F823309B0756BF656A054620EA5F
:103E80000505204601F08FFB00223946204601F04F
:103E900031FC4446DEE7000008B50246EFF3058337
:103EA00033B100206FF0050102F0E0F8002008BDFA
:103EB000FFF79EFE0028F4D1DFF808C0104600DFAF
:103EC000F5E700BF393C000038B502460D46EFF378
:103ED00005834BB192B96FF00301104602F0C6F8AA
:103EE0006FF00304204638BDFFF782FE0028F1D1B1
:103EF000DFF830C0104600DF0446F3E71378F32BF9
:103F0000E9D1002DE7DB02F10C0353E8001F41EA81
:103F1000050443E8004000B1F7E7104601F03CFA21
:103F2000E0E700BF193E000010B502460C46EFF373
:103F300005832BB121461046BDE81040FFF763BE54
:103F4000FFF756FE0028F5D11046DFF808C000DF65
:103F500010BD00BF073C0000F8B504460E461746EA
:103F60001D46EFF3058343B18CB920466FF0030182
:103F700002F07CF86FF00300F8BDFFF739FE00286F
:103F8000F2D1DFF82CC020462B4600DFF4E723787F
:103F9000F32BEAD1002DE8D1002EE6DB3A4631467C
:103FA0002046FFF7BFFE002808BF6FF00200E3E7DE
:103FB000BD3D000008B50246EFF305833BB1104656
:103FC0006FF0050102F052F86FF0050008BDFFF731
:103FD0000FFE0028F3D1DFF808C0104600DFF5E738
:103FE000B53C000070477047EFF310832BB9EFF337
:103FF0001180003818BF0120704701207047000071
:10400000014BD868704700BF5800002008B5094B25
:104010001A7A022A08D0032A0AD04FF0FF3002F0A1
:1040200019F84FF0FF3002E003221A72002008BD99
:104030000120FCE75800002070B5484C217A012986
:1040400000F08A8031B14FF0FF3002F003F84FF0FA
:10405000FF3070BD424D9C2204F1080040F078FB17
:10406000D5E90B61EB68E3652B8AA4F85430304640
:10407000AB68236400F0F6F908B1C4F88060D5E9B4
:104080000561304600F0EEF908B9D4F88060666743
:10409000D5E90761304600F0E5F908B9D4F8806049
:1040A000A667D5E90961304600F0DCF908B9D4F813
:1040B0008060E6676E6B3EB1D6E902233168304618
:1040C00000F03AFAC4F88460AE6B3EB1D6E9022340
:1040D0003168304600F030FAC4F88860EE6B3EB1CB
:1040E000D6E902233168304600F026FAC4F88C6025
:1040F0002E6C3EB1D6E902233168304600F01CFA3E
:10410000C4F890606E6C3EB1D6E902233168304647
:1041100000F012FAC4F89460AE6C3EB1D6E9022306
:104120003168304600F008FAC4F89860EE6C3EB191
:10413000D6E902233168304600F0FEF9C4F89C60ED
:104140002D6D3DB1D5E902232968284600F0F4F928
:10415000C4F8A0500123237200207AE75800002001
:104160002041050070B5264D2B7A012B07D06FF04A
:10417000060001F06FFF4FF0FF34204670BD01F0E4
:104180000FFD10B94FF0FF30F3E71E4A1E4E1F49D6
:104190007068FF2382F8223092F82230D26863F0F0
:1041A000FF03DB4314BFB3FA83F32023C3F12003DF
:1041B000C2F30222934298BF531CFE2202FA03F379
:1041C000104ADBB2D3770FF0F1F904460028D9D1B9
:1041D0000FF042FA28610FF02BFA0D4801F0DAF9DE
:1041E00001F052FA336813F0010F4FF0020303D0CD
:1041F00083F314882B72C0E7032282F31488F9E753
:104200005800002000ED00E020410500A505000059
:104210007400002008B50A4B1A7A023A012A02D823
:1042200040B1012809D04FF0FF3001F013FF4FF0EB
:10423000FF3001E002221A7208BD0322FBE700BF33
:104240005800002010B5134C237A022B05D06FF0D4
:10425000070001F0FFFE002010BD0FF0F1F901236F
:104260006372BFF34F8F0C4A5168C90042BF4FF0D1
:1042700000615160A372E36A4BB1D869636C1BB1F2
:104280001B69984228BF184604232372E4E74FF0C5
:10429000FF30F3E75800002000ED00E0F8B5214CB6
:1042A000237A042B05463BD1E3680344E360E36AC9
:1042B00053B106460127DA69B24225D8DF61B61A42
:1042C00001F094F9E36A13BB636C4BB101261869E2
:1042D000A8421FD81E61236D2D1A9847636CE3B95D
:1042E00002230020237201F0D9F900236372BFF387
:1042F0004F8FA27A22B1A3720B4B4FF080525A60BB
:10430000BDE8F8400FF094B9921BDA61DCE7002EAB
:10431000D1D1D9E7401B1861E2E7002DD7D1DFE703
:10432000F8BD00BF5800002000ED00E0704700001D
:1043300008B5FFF7FBFFEFF3058333B16FF005001E
:1043400001F088FE6FF0050008BDFFF74DFE002864
:10435000F4D1DFF808C000DFF6E700BF3940000005
:1043600008B5EFF3058333B16FF0050001F072FE7D
:104370006FF0050008BDFFF737FE0028F4D1DFF825
:1043800008C000DFF6E700BF6541000008B5EFF3A5
:10439000058333B16FF0050001F05CFE6FF005009E
:1043A00008BDFFF721FE0028F4D1DFF808C000DFC8
:1043B000F6E700BF0D40000008B50246EFF30583A5
:1043C00033B16FF0050001F045FE6FF0050008BD48
:1043D000FFF70AFE0028F4D1DFF808C0104600DF1E
:1043E000F5E700BF1542000008B5EFF305832BB1D8
:1043F0006FF0050001F02EFE002008BDFFF7F4FD70
:104400000028F5D1DFF804C000DFF6E745420000E0
:1044100008B50246EFF305832BB1BDE808406FF005
:10442000050001F017BEFFF7DFFD0028F5D1DFF82A
:1044300008C0104600DF08BD9D42000008B5EFF33C
:10444000058313B1054BD86808BDFFF7CDFD0028E3
:10445000F8D1DFF80CC000DFF6E700BF58000020FD
:104460000140000010B598B140EA010313F00703C2
:104470000ED117290AD90160083910220C1884605E
:1044800042600B5081684A60C3600123184610BD2A
:104490000023FBE7F0B5034670B369B332F00300C5
:1044A0002AD10F3121F0070103F10806344636689E
:1044B0006568301B25F00305401B814203D9306835
:1044C0000028F3D1F0BD5F681D680F445F602B4486
:1044D000083B5868874288BF5F6063680A431BB91E
:1044E000626004F10800EDE723F00303E018E650F2
:1044F000426020600830E5E70020E3E710B580B1B6
:10450000C1B1A1F1080400F108030022A34209D1BE
:10451000596821F003044168091B41603AB95A60A7
:10452000012010BD19681A4621B10B46EEE71B6841
:104530001360F5E70846F4E730B5C0B189B1C2B100
:10454000CBB10024C0E9014202FB01F41D19016056
:10455000C360436105611846013904D1A21A99501C
:104560000121084630BD851805602846F4E701465C
:10457000F7E71146F5E71946F3E710B50346A8B18A
:1045800000F1140252E8000F10B9BFF32F8F04E0BE
:10459000016842E8001404B1F4E738B1043353E889
:1045A000002F511C43E8001404B1F8E710BD30B5EA
:1045B000F0B1C3688B421BD803698B4218D900F154
:1045C00014031A680A60BFF35F8F53E8002F0C686A
:1045D0009442F6D143E8001505B1F2E7043050E803
:1045E000003F5A1E40E8002101B1F8E7002030BD2D
:1045F0006FF00300FBE7EFF310832BB9EFF31180AB
:10460000003818BF0120704701207047D1E90132FE
:1046100023B19A608A681AB153607047C262F9E7A1
:10462000036370472DE9F84F8846074600B131B95A
:104630006FF00301002001F02FFD002477E0CE1C75
:1046400026F003060C36B0FA80F104D0B6FA86F3F1
:104650000B441F2BECDD06FB07FAF2B194683CB16A
:10466000A30702D1D368332B05D86FF00801E1E727
:10467000D368002BF9D1D2E90453D2F800903DB1B0
:1046800015F0030B01D19A4554D96FF00901D1E718
:10469000002BFAD11CB19B460CE091461546274BE6
:1046A000D3F8A000D8B1FFF768FF0446A0B14FF0DF
:1046B000010B35BB214B0022D86F5146FFF7EAFEB4
:1046C0000546C0B9BBF1000F06D01C4BD3F8A000C3
:1046D000214658B1FFF76BFF6FF00401AAE7D3F84A
:1046E000800001223421FFF7D5FEDEE7D3F88000F9
:1046F000FFF704FFF0E75246002140F029F84BF0A5
:10470000020BFA2323700023C4E90983C4E90B33A5
:10471000A36032462B4684F802B0C4F804903946B0
:1047200004F10C00FFF708FF044B054A1A67204606
:10473000BDE8F88F002CE4D1B1E700BF580000209D
:10474000D147000010B500F1280353E8002F12B93B
:10475000BFF32F8F04E0511E43E8001404B1F4E7C7
:104760000AB9002010BDC06A01220028F9D0811CBE
:10477000D1E84F3FC1E8442F04B1F9E7DBB2002B89
:10478000F0D08068F1E7036B30B5E3B1CD78002459
:10479000DA78AA420FD31A46C1E901248AB191609E
:1047A000A4B16160283050E8003F5A1C40E8002165
:1047B00001B1F8E730BD5A681C46002AECD0134618
:1047C000E6E7C162ECE7C1E90133C1620163E9E7F1
:1047D000F8B5877804468FB3C56801460027284698
:1047E000FFF714FF277005F10C042046FFF7DFFEEA
:1047F000AB68002B48D02046FFF7BFFE04460028D8
:1048000042D0284600F0C6FE3A460646394600F039
:1048100071FF304600F01AFF6A6A8168064604F1AB
:104820000C00FCF745F8F9232370A770F368E370D8
:1048300021462846BDE8F840FFF7A5BF8568AB686C
:10484000002BF5D05B78832BF2D1284600F0A2FE36
:104850003A460646394600F04DFF304600F0F6FE77
:1048600006466A6A806804F10C01FCF721F8F368D7
:104870000BB1E2781A7000232370214605F10C0079
:10488000BDE8F840FFF793BEF8BD00002DE9F04108
:104890000C4617469846054618B10378FA2B00D106
:1048A00041B928466FF0030101F0F6FB6FF00300F9
:1048B000BDE8F0818368C3B15B78832B15D100F02C
:1048C00069FE01220646002100F014FF304600F088
:1048D000BDFE06466A6A80682146FBF7E9FFF0687C
:1048E0000028E5D007700020E2E705F10C00FFF793
:1048F00044FE064670B121466A6A0C30FBF7D8FFC9
:104900000024F9233370B470F77031462846FFF75E
:104910003AFFE8E7B8F1000F10D04146932001F0CC
:1049200039F840B1074B2846596900F021FEEFF3F2
:104930000983C3E902476FF00100B9E76FF0020095
:10494000B6E700BF580000202DE9F0410F4615469C
:104950009846044618B10378FA2B00D141B9204695
:104960006FF0030101F098FB6FF00300BDE8F081E8
:10497000FFF7E8FE064600283AD001462046FFF73A
:1049800045FE626A06F10C013846FBF791FF0DB156
:10499000F3782B70002504F10C073570314638464A
:1049A000FFF705FEA3680BB90020DFE73846FFF7E5
:1049B000E4FD06460028F7D0204600F0EBFD29462E
:1049C0000746012200F096FE384600F03FFE626A7C
:1049D0008168074606F10C00FBF76AFFF923337084
:1049E000B570FB68F37031462046FFF7CCFEDBE77D
:1049F000B8F1000F10D04146832000F0CBFF40B14A
:104A0000074B2046596900F0B3FDEFF30983C3E972
:104A100002756FF00100A9E76FF00200A6E700BF82
:104A20005800002010B50446EFF3058333B1002091
:104A30006FF0050101F030FB002010BDFFF7DBFD3A
:104A40000028F4D1DFF808C0204600DFF5E700BFFA
:104A5000254600002DE9F04106460F4690461C46CB
:104A6000EFF305834BB196B930466FF0030101F0C7
:104A700013FB6FF00300BDE8F081FFF7BCFD0028D9
:104A8000F1D1DFF84CC03046234600DFF3E733783E
:104A9000FA2BE9D1002FE7D0002CE5D106F10C006C
:104AA000FFF76BFD054680B1726A39460C30FBF7A3
:104AB000FFFEF9232846C5E901762B70AC7085F816
:104AC000038000F069FC2046D5E76FF00200D2E7D2
:104AD0008D480000F8B504460F4616461D46EFF314
:104AE000058343B18CB920466FF0030101F0D4FA7D
:104AF0006FF00300F8BDFFF77EFD0028F2D1DFF86C
:104B000048C020462B4600DFF4E72378FA2BEAD191
:104B1000002FE8D0002DE6D12046FFF713FE054612
:104B200070B100F10C01626A3846FBF7C1FE0EB1AC
:104B3000EB7833702846EC6000F02EFC0020D9E7BB
:104B40006FF00200D6E700BF49490000EFF3108381
:104B50002BB9EFF31180003818BF012070470120F6
:104B60007047000070B5A8B38468D0E900566CB1F6
:104B700014F0030302D1C2681B2A1AD86FF008018F
:104B8000002001F079FA0024204670BDC368002B94
:104B9000F4D1124BD3F8940030B9D3F8800001223D
:104BA0001C21FFF777FC01E0FFF7E7FC044660B14A
:104BB0000123F522A3700023C4E90233C4E90433BE
:104BC0002270E67065602376DEE76FF0040101F085
:104BD00053FAD9E705460646DBE700BF5800002038
:104BE000284B70B55D6904460E4635B96FF0070174
:104BF00001F042FA4FF0FF3070BD10B10378F52B91
:104C000007D020466FF0030101F036FA6FF0030081
:104C1000F2E7037E53B9C0E90353EB6A436103B182
:104C20001861EC62012323760020E5E7C278D10702
:104C30000DD5C168A9420AD1FF2B06D16FF00F0133
:104C400001F01AFA6FF00200D6E70133EBE7002E0D
:104C5000F8D093070AD5E06895F9203090F9202024
:104C60009A4203DA80F8203000F0A6FC3146532047
:104C700000F090FE18B12946204600F079FC6FF054
:104C80000100B9E75800002038B52F4B5A69044697
:104C900032B96FF0070101F0EFF94FF0FF3038BD86
:104CA00010B10378F52B07D020466FF0030101F017
:104CB000E3F96FF00300F2E7037E33B96FF00E0102
:104CC00001F0DAF96FF00200E9E7C168914202D021
:104CD0006FF00D01F4E7013BDBB2037633BB4369B0
:104CE0000BB101691961216911B34B61E3789B072D
:104CF00005D592F92110D36AE3B982F82010A36890
:104D00008BB1204600F046FC00220546114600F01B
:104D1000F1FC00232361EB6AE560636103B11C6170
:104D20000123EC622376002000F0B8FC0020B6E7F7
:104D3000D362DBE7986820B190F920008142B8BFC8
:104D400001465B69D8E700BF5800002070B50446F3
:104D500010B10378F52B07D020466FF0030101F066
:104D60008BF96FF0030070BD037ED3B16369C06837
:104D70000BB122691A6122691AB35361E3789B0768
:104D80000BD590F92130C26AEAB990F920209A42F5
:104D900003D080F8203000F00FFCA068E0B900F0EC
:104DA0007DFCA078002610F001002670DBD0124BAD
:104DB000D3F894502146C5B12846FFF7F8FB30469A
:104DC000D1E7C362DAE7916821B191F920108B42F3
:104DD000B8BF0B465269D7E7204600F0DBFB002244
:104DE0006FF0020100F086FCD7E7D3F88000FFF7F0
:104DF00085FB2846B7E700BF580000202DE9F041A9
:104E00000446002601270CB9BDE8F081E378D4F808
:104E100014801B0712D5A36826767BB1204600F0CC
:104E2000B9FB00220546114600F064FCEB6A6361A1
:104E3000C4E9035603B11C61EC6227764446E2E7FD
:104E400010B4C3789B071AD5C06890F92130C26AA4
:104E500094688C4208BF8C6824B194F92040A34226
:104E6000B8BF23465269002AF2D190F920209A4215
:104E700005D080F820305DF8044B00F09DBB5DF854
:104E8000044B704708B50246EFF3058333B10020A9
:104E90006FF0050101F0F0F8002008BDFFF756FEA5
:104EA0000028F4D1DFF808C0104600DFF5E700BFA6
:104EB000654B000008B50246EFF305833BB1104691
:104EC0006FF0050101F0D8F86FF0050008BDFFF79D
:104ED0003DFE0028F3D1DFF808C0104600DFF5E7FB
:104EE000E14B000008B50246EFF305833BB11046E5
:104EF0006FF0050101F0C0F86FF0050008BDFFF785
:104F000025FE0028F3D1DFF808C0104600DFF5E7E2
:104F1000894C000008B50246EFF305833BB110460B
:104F20006FF0050101F0A8F86FF0050008BDFFF76C
:104F30000DFE0028F3D1DFF808C0104600DFF5E7CA
:104F40004D4D0000EFF310832BB9EFF311800038C3
:104F500018BF01207047012070470C30D0E85F3F38
:104F600013B9BFF32F8F04E05A1EC0E8512F01B1CF
:104F7000F4E798B2003818BF0120704730B500F14F
:104F80000C02C189D2E85F3F994202D8BFF32F8F4C
:104F900004E05C1CC2E8554F05B1F3E7C0899BB241
:104FA000984294BF0020012030BD0000F8B515469E
:104FB0004FF6FE73421E9A4206460F4601D88842BB
:104FC00007D26FF00301002001F05CF800242046B6
:104FD000F8BD7DB1AC682A6844B114F0030302D176
:104FE000E9680F2922D86FF00801ECE7EB68002B85
:104FF000F9D11546114BD3F8980080B1FFF7BDFAEF
:105000000446A8B10123A3700023F622A3600B4B32
:1050100022700B4A6560A781E6819A66D7E7D3F8CC
:10502000800001221021FFF735FAE9E71546EAE78B
:105030006FF0040101F026F8C9E700BF5800002016
:10504000B550000070B5054610B10378F62B07D0B7
:1050500028466FF0030101F015F86FF0030070BDF2
:10506000836863B1284600F095FA00226FF00201D0
:1050700000F040FBA8680028F4D100F00FFBAB78EB
:10508000002613F001032E700FD0094BD3F898407F
:10509000294624B12046FFF78AFA3046DFE7D3F8E5
:1050A0008000FFF72BFA2046D9E71846D7E700BF64
:1050B00058000020836810B504465BB1FFF74DFF30
:1050C00040B1204600F066FA0022BDE810401146CB
:1050D00000F010BB10BD38B5054610B10378F62BB3
:1050E00007D028466FF0030100F0CCFF6FF00300FB
:1050F00038BD84683CB100F04DFA0122002100F077
:10510000F9FA0020F4E7FFF739FF38B928466FF0C5
:10511000100100F0B7FF6FF00200E9E72046E7E773
:1051200038B50D46044610B10378F62B07D020465B
:105130006FF0030100F0A6FF6FF0030038BDFFF72A
:105140000CFF68B975B12946632000F023FC20B13B
:10515000064B2046596900F00BFA6FF00100EDE7AD
:105160000020EBE76FF00200E8E700BF58000020E6
:1051700010B50446EFF3058333B100206FF005014D
:1051800000F080FF002010BDFFF7DCFE0028F4D106
:10519000DFF808C0204600DFF5E700BFAD4F000094
:1051A00010B502460C46EFF3058343B182B91046B1
:1051B0006FF0030100F066FF6FF0030010BDFFF712
:1051C000C1FE0028F2D1DFF824C0104600DFF5E769
:1051D0001378F62BEBD1002CE9D11046FFF7BDFE7A
:1051E000002814BF00206FF00200E7E72151000003
:1051F00010B50446EFF3058343B184B920466FF040
:10520000030100F03FFF6FF0030010BDFFF79AFEAF
:105210000028F2D1DFF830C0204600DFF5E7237820
:10522000F62BEBD12046FFF7A9FE20B1204600F077
:10523000B3F80020E9E720466FF0100100F022FFEC
:105240006FF00200E1E700BFD750000008B502464A
:10525000EFF305833BB110466FF0050100F012FF3C
:105260006FF0050008BDFFF76DFE0028F3D1DFF8F1
:1052700008C0104600DFF5E74550000010B5D0E843
:105280005F3F5A1C914200D80022C0E8542F04B15D
:10529000F5E798B210BD000038B51A4C0EF0D6F9FB
:1052A000E3680133E360236D03B1984700F09EF992
:1052B000002000F0F3F9236C1BB3A26BA1698A42B2
:1052C00002D0A163E3631CE0E36BB3B9237A022B42
:1052D00017D1656AADB195F9201092F92030994245
:1052E0000FD1284600F05FF9A06B00F077F928464F
:1052F00000F0CAF9236CA563E4E7013BE363002BEC
:10530000E4D038BD5800002070B5224C04F1560599
:1053100004F15A06B4F85410D5E85F3F13B9BFF34F
:105320002F8F04E05A1EC5E8502F00B1F4E79BB25E
:105330005BB33046FFF7A2FFE36D53F8200020B3C4
:105340000378F13B082BE5D801A252F823F000BF07
:1053500075530000155300007B53000015530000E7
:10536000155300007F5300008353000015530000C5
:1053700087530000236E9847CCE7636EFBE7A36E6C
:10538000F9E7E36EF7E7236FF5E7BDE8704000202B
:1053900000F084B95800002070B5164C0546B4F8EA
:1053A000541004F15602D2E85F3F994202D8BFF38D
:1053B0002F8F04E0581CC2E8560F06B1F3E79BB2EA
:1053C000994205D829460220BDE8704000F004BE8D
:1053D00004F15800FFF752FFE36D43F82050637A61
:1053E00023B9054B4FF080525A6070BD0123A37260
:1053F000FBE700BF5800002000ED00E0EFF3108352
:105400002BB9EFF31180003818BF0120704701203D
:1054100070470378F12B00D07047C068F9E70000AF
:1054200010B50A4A90F9201001234370536A1C32C8
:105430001BB193F920408C4205DCC0E90232906038
:1054400003B1D86010BD1A469B68F1E758000020F0
:10545000014B5869704700BF5800002010B5002369
:10546000038083789A07044608D513F0100F016B68
:105470000E4B0FD0D3F88400FFF799F8A378DB0721
:1054800012D50A4BD3F88800214638B1BDE8104048
:10549000FFF78DB8586FFFF731F8EFE7BDE8104020
:1054A000D3F88000FFF72AB810BD00BF58000020D5
:1054B00008B500F0F7FDDFF810C000DF4FF0FF3156
:1054C000002000F0CDFDFEE7795A000010B5C46958
:1054D000621CD0E904310AD103B1596142691AB1A1
:1054E00013610023436101E0064A136310BD1BB141
:1054F000DA6959612244DA614269002AF0D1014A2D
:10550000D362F3E758000020930710B502F00104BE
:1055100022D400F1280384B153E8000F00EA01020D
:105520008A4203D0BFF32F8F002005E020EA01025A
:1055300043E8002404B1EFE710BD53E8000F084230
:1055400003D1BFF32F8F002005E020EA010243E8DA
:10555000002404B1F1E7EFE7806A01EA00031CB11F
:105560008B4218BF0020E7E7002B08BF0020E3E7CD
:1055700010B591F9202083681BB193F92040944223
:1055800005DAC1E90230816003B1D96010BD184667
:105590009B68F1E783689A68826002B1D06000225C
:1055A000DA6018467047C2682AB18368936003B115
:1055B000DA600023C360704710B5044664B12378F5
:1055C000F12B07D0FFF7EFFF01462046BDE8104062
:1055D000FFF7CEBFE468F1E710BD000001230146EC
:1055E00043700148FFF7C4BF7400002038B5164D62
:1055F000EC6A44B3E369013BE36123BB6378732B3B
:1056000006D009D8532B0BD003F0DF03432B0DD169
:105610002046FFF7FEFE09E003F0EF03832BF6E7D9
:105620002046FFF7F6FE2146FFF70AFC2046FFF76B
:10563000BAFFFFF7D3FF246924B1E369002BDDD063
:1056400000236361EC6238BD5800002090F82230DE
:10565000826B13F0100F0CBF6020202010447047A5
:10566000074B596951B10B6B8A6B934203D21A688D
:10567000044B9A4202D0012000F0AEBC704700BF3C
:1056800058000020A52E5AE208B502234370024BB1
:105690009861FFF7E5FF08BD5800002010B5144BD6
:1056A00004461A7A5969A0B9022A1FD15C6AECB182
:1056B00094F9202091F920309A4217DD2046FFF717
:1056C00072FF0846FFF7ACFE2046BDE81040FFF72A
:1056D000DBBF022A05D190F9202091F920309A42AF
:1056E000EFDC2046BDE81040FFF778BF10BD00BFDB
:1056F0005800002038B505461446FFF7A7FF0160A3
:105700002846FFF7E3FE1CB1BDE83840FFF7C6BFEF
:10571000BDE83840FFF762BF10B54378332B04462D
:105720000CD1416A90F82320FFF7EEFE014628B124
:1057300020460022BDE81040FFF7DCBF10BD70B569
:10574000044620B10378F12B01D1002908DA6FF06B
:1057500003012046FEF746FC6FF00305284670BDA6
:105760004378042B06D16FF00201FEF73BFC6FF08B
:105770000205F3E700F1280353E8002F42EA010590
:1057800043E8005606B1F7E74378332BE6D1416A88
:1057900090F82320FFF7B8FE01460028DED094F8E9
:1057A00023309B0756BF656A054620EA050501229E
:1057B0002046FFF79FFFD1E72DE9F04F85B0039119
:1057C000019028B96FF0030100F04AFC0024BEE00C
:1057D000002A4AD0966846B1B00702D1D368432B5D
:1057E00006D86FF008010020EEE7D368002BF8D14F
:1057F000D2E90449976944B1610703D1B9F1000FB7
:1058000040F0B1806FF00A01EDE72FB1791E372922
:1058100003D96FF00B01E6E71827B9F1000F40F04C
:10582000A680D2E900B3029366BB554DD5F8880037
:1058300008B3FEF7A2FE064600283DD04FF001084F
:10584000DFF83CA1002C42D1B9F1000F1DD14D4B26
:10585000DAF88400D3F85490B8B1FEF78EFE05460E
:10586000E0B148F01008344623E093461446182768
:1058700091460292D9E7D5F8800001224421FEF733
:1058800009FED8E74FF00008DAE7DAF8740022469C
:105890004946FEF7FFFD05460028E4D1B8F1000FA8
:1058A00013D0DAF8885031464DB12846FEF77FFE16
:1058B000002548F0020864B96FF0040193E7DAF8B4
:1058C0008000FEF71BFE2C46F3E74546F1E7254630
:1058D000344640F2F11222800022C4E90222C4E9D7
:1058E0000422C4E90622C4E90922C4E90B25A9F16E
:1058F0004002029BE3702A44019BA2637FB2224ACA
:10590000E363FD2184F80280C4F804B084F82070B9
:1059100084F821706184C4F834902A60194A1268AE
:10592000530718D4A36B3422184600213EF010FF11
:10593000164A4263019A82634FF08072C263039AEF
:105940000262134BCAF860302046FFF7A7FE2046DC
:1059500005B0BDE8F08F29F00302443ACC21281DA0
:105960003EF0F6FEDEE7002F7FF450AF182719F067
:10597000070F7FF447AFB9F1470F3FF652AF41E74A
:105980005800002020410500A52E5AE2B154000025
:105990001957000038B51E4C237A022B34D1636AA4
:1059A000002B33D063694A1C587015D1226B00213B
:1059B0006AB94FF0FF30C3E90421D86151B10B61DE
:1059C0001448FFF7E7FDFFF75FFE012038BD1146E1
:1059D0001269EDE72363F3E7E26A002012B1D569AB
:1059E000A9420BD2C3E90420D96158B10361002A4E
:1059F000E6D0D0695361411AD161E1E71046491BF5
:105A00001269EBE7E362F2E70020DFE71846DDE723
:105A10005800002074000020F8B5164B5C6905465C
:105A20000F4616463CB920466FF00701FEF7DAFA3A
:105A30004FF0FF30F8BD002807DA20466FF0030171
:105A4000FEF7D0FA6FF00300F4E70A46014620465D
:105A5000FFF75AFD0028EDD14EB1656284F823703E
:105A600031463320FFF796FF6FF00100E2E76FF059
:105A70000200DFE75800002038B5154D2B7A022BC5
:105A800025D16B6A1BB36C69E06AFFF7B7F9A069AF
:105A900018B100221146FFF72DFEEFF309830D48E0
:105AA000A363FFF777FDFFF7EFFD00236B61E2785B
:105AB000D20704D42046BDE83840FFF7CFBC04220B
:105AC0006270E3606B6BA36003B1DC606C6338BD34
:105AD000580000207400002038B5044610B1037847
:105AE000F12B07D020466FF0030100F0B9FA6FF0F8
:105AF000030038BD437803F00F03022B25D0032B9E
:105B000032D0012B35D1FFF74EFDE06AFFF776F971
:105B1000A06918B100221146FFF7ECFD6378022B53
:105B20002AD1EFF309831C48A363FFF733FDFFF786
:105B3000ABFD1A4B00225A61E07810F001051FD12D
:105B40002046FFF78BFC0020D3E7144B1A7A022A79
:105B500002D15B6A002BD8D16FF00201204600F021
:105B60007FFA6FF00200C4E7FFF71DFDFFF7AEFC00
:105B7000CBE76FF00201F2E70020FFF78FFDDBE7D4
:105B80000423064A63700023E360536BA36003B1F0
:105B9000DC605463D7E700BF740000205800002089
:105BA00038B50B4C0B48A26D0B4D0021FFF704FEDE
:105BB000636EA8624BB1E26D08480021FFF7FCFD5F
:105BC000A864003818BF012038BD0120FCE700BFE1
:105BD00020410500D15F0000580000209D5D0000BD
:105BE00010B50446EFF3058333B100206FF00501D3
:105BF00000F036FA002010BDFFF700FC0028F4D1B9
:105C0000DFF808C0204600DFF5E700BFB957000005
:105C100008B5EFF3058313B1054B586908BDFFF7CD
:105C2000EDFB0028F8D1DFF80CC000DFF6E700BF7D
:105C3000580000205154000010B5044600F03EFA10
:105C4000EFF305833BB120466FF0050100F008FA41
:105C50006FF0050010BDFFF7D1FB0028F3D1DFF88E
:105C600008C0204600DFF5E7D95A000038B50246E3
:105C70000D46EFF305834BB192B96FF00301104667
:105C8000FEF7B0F96FF00304204638BDFFF7B6FB0E
:105C90000028F1D1DFF844C0104600DF0446F3E7E6
:105CA0001378F12BE9D1002DE7DB5378042B07D1D2
:105CB0006FF002011046FEF795F96FF00204E3E77A
:105CC00002F1280353E8001F41EA050443E80040BD
:105CD00000B1F7E71046FFF75FFBD5E73F5700003D
:105CE00010B50446EFF305833BB100206FF00501CA
:105CF000FEF778F96FF0050010BDFFF77FFB002875
:105D0000F3D1DFF808C0204600DFF5E7195A00009C
:105D100030B50C4D6B6C002213B11C698C420AD952
