:100000000000032025060000E9030100C1050000EF
:10001000C7050000CD050000D3050000000000006A
:10002000000000000000000000000000FD040000CF
:10003000690600000000000095050000A50500000D
:100040008106000085060000890600008D0600007C
:100050009106000095060000990600009D0600002C
:10006000A1060000A5060000A9060000AD060000DC
:10007000B1060000B5060000B9060000BD0600008C
:10008000C10600006906000069060000690600005C
:1000900069060000690600006906000069060000A4
:1000A000C5060000C9060000CD060000D10600000C
:1000B000D5060000D9060000DD060000E1060000BC
:1000C000E5060000E9060000ED060000F10600006C
:1000D000F5060000F9060000FD06000069060000B4
:1000E0006906000069060000690600006906000054
:1000F0006906000069060000690600006906000044
:100100006906000069060000690600006906000033
:100110006906000069060000690600006906000023
:100120006906000069060000690600006906000013
:100130006906000069060000690600006906000003
:10014000690600000107000005070000090700001C
:100150000D07000011070000690600006906000095
:100160006906000069060000150700001907000075
:100170001D070000210700002507000029070000D7
:100180002D0700003107000035070000E51B0100C6
:10019000FD1B0100151C0100690600006906000036
:1001A0006906000069060000690600006906000093
:1001B0006906000069060000690600006906000083
:1001C0006906000069060000690600006906000073
:1001D0006906000069060000690600006906000063
:1003F000690600006906000069060000FFFFFFFFB4
:10040000FFFFFFFFFFFFFFFFFFFFFFFFFEFFFFFFFD
:1004400010B5054C237833B9044B13B10448AFF30E
:1004500000800123237010BD800C002000000000EC
:100460008C28020008B5034B1BB103490348AFF3C6
:10047000008008BD00000000840C00208C280200D1
:10048000A3F5803A704700BF174B002B08BF134BF2
:100490009D46FFF7F5FF00218B460F461348144A8F
:1004A000121A19F095FE0E4B002B00D098470D4BF9
:1004B000002B00D098470020002104000D000D48BB
:1004C000002802D00C4817F0DFFF19F077FA20005F
:1004D000290005F0B1FA18F0D3F900BF00000800B8
:1004E000000000009559000000000320800C00204F
:1004F00000EC002089840100000000001EF0040FC1
:100500000CBFEFF30880EFF30980816911F8021C3A
:1005100091BB01B590E80F10E047BDE800508CE8B2
:100520000300244B93E80600914208BF704741B98D
:100530001EF0100F10D12049086820F0010008605B
:100540000AE02CE9F00F1EF0100F08BF2CED108A06
:10055000C1F838C081F822E01A6092F82210906B3E
:1005600061F0FF0E1EF0100F08BFB0EC108AB0E86B
:10057000F00F80F309887047104A13689942FAD83F
:1005800001B552F821C00FC8E047BDE80050CCF8D3
:100590000000704701B504F095FCBDE80140EFF3A1
:1005A000098CBEE701B504F055FCBDE80140EFF34E
:1005B000098CB6E7A000002034EF00E078F90100D4
:1005C000102300F007B8202300F004B8302300F017
:1005D00001B840239C46F0B404AE7546E80801D348
:1005E000EFF309860E4F0FCE0FC70FBC0FC7404663
:1005F000494652465B460FC71DCE3100A60A00D3BE
:1006000004316E0900D248311FC7EFF309806946F3
:10061000EFF3148663C7604601490FF097F900BFF6
:100620000004FF1F72B60948094901600948804764
:1006300009490A4A0A4B9A42BEBF51F8040B42F8D4
:10064000040BF8E762B607488047000008ED00E0B9
:100650000000000051040100C0280200000000203A
:10066000800C002089040000FFF7FEBF35480047DA
:10067000354800473548004735480047354800476A
:10068000354800473548004735480047354800475A
:10069000354800473548004735480047354800474A
:1006A000354800473548004735480047354800473A
:1006B000354800473548004735480047354800472A
:1006C000354800473548004735480047354800471A
:1006D000354800473548004735480047354800470A
:1006E00035480047354800473548004735480047FA
:1006F00035480047354800473548004735480047EA
:1007000035480047354800473548004735480047D9
:1007100035480047354800473548004734480047CA
:1007200033480047324800473148004730480047C7
:1007300030480047304800473048004730480047BD
:1007400030480047E9030100C1050000FD04000036
:1007500095050000A50500002915010035150100CB
:10076000411501004D1501005915010065150100E5
:10077000711501007D150100891501009515010015
:10078000A1150100AD150100B9150100C515010045
:10079000D1150100DD150100690600009D1C010056
:1007A000B11C0100DD13010011140100B91E01008C
:1007B000F51E0100690600002524010069060000FD
:1007C00041240100690600005D2401006906000063
:1007D00079240100690600004514010095240100F8
:1007E00069060000B124010069060000C51C010073
:1007F0002D1C0100311F0100690600006906000080
:10080000690600006906000000000000000000000A
:1008100001F0FF01102A2BDB10F0070F08D010F8B1
:10082000013B013A8B422DD010F0070F42B3F6D1B5
:10083000F0B441EA012141EA014122F007047FF0CE
:1008400000070023F0E80256083C85EA010586EA25
:10085000010685FA47F5A3FA87F586FA47F6A5FA61
:1008600087F68EB9EED1F0BC01F0FF0102F007026D
:1008700032B110F8013B013A83EA010313B1F8D118
:100880000020704701387047002D06BF35460338F9
:10089000073815F0010F07D1013015F4807F02BF32
:1008A000013015F4C03F0130F0BC0138704700BF83
:1008B000844641EA000313F003036DD1403A41D36B
:1008C00051F8043B40F8043B51F8043B40F8043B2A
:1008D00051F8043B40F8043B51F8043B40F8043B1A
:1008E00051F8043B40F8043B51F8043B40F8043B0A
:1008F00051F8043B40F8043B51F8043B40F8043BFA
:1009000051F8043B40F8043B51F8043B40F8043BE9
:1009100051F8043B40F8043B51F8043B40F8043BD9
:1009200051F8043B40F8043B51F8043B40F8043BC9
:1009300051F8043B40F8043B51F8043B40F8043BB9
:10094000403ABDD2303211D351F8043B40F8043B59
:1009500051F8043B40F8043B51F8043B40F8043B99
:1009600051F8043B40F8043B103AEDD20C3205D369
:1009700051F8043B40F8043B043AF9D2043208D061
:10098000D2071CBF11F8013B00F8013B01D30B88D3
:1009900003806046704700BF082A13D38B078DD0B1
:1009A00010F003038AD0C3F10403D21ADB071CBF83
:1009B00011F8013B00F8013B80D331F8023B20F8ED
:1009C000023B7BE7043AD9D3013A11F8013B00F826
:1009D000013BF9D20B7803704B7843708B788370AE
:1009E00060467047000000000000000000000000AA
:1009F00000000000000000000000000000000000F7
:100A0000A2EB0300704700BF02780B78012A28BFD1
:100A10009A42F5D16DE9044540EA0104CDE9026747
:100A20006FF0000C4FEA447212B380EA010414F034
:100A3000070F6AD100F0070420F0070004F0030557
:100A400021F007014FEAC505F0E8042314F0040F74
:100A5000F1E804670CFA05F462EA040266EA0406A7
:100A60000AD063EA0403624667EA0407664603E0C5
:100A7000F0E80423F1E8046782FA4CF582EA060400
:100A8000A4FA8CF46CBB83FA4CF583EA0705A5FA4B
:100A90008CF595B950E9022351E9026782FA4CF5C9
:100AA00082EA0604A4FA8CF483FA4CF583EA07057B
:100AB000A5FA8CF52543DBD09CB92DBAB5FA85F49F
:100AC00024F0070427FA04F1DDE9026723FA04F3AE
:100AD00003F0FF0001F0FF01FDE80445A0EB010079
:100AE000704724BAB4FA84F424F0070426FA04F117
:100AF000DDE9026722FA04F202F0FF0001F0FF01D3
:100B0000FDE80445A0EB0100704714F0030F3CD151
:100B100010F0030428D150F8082B51F8083B82FA52
:100B20004CF582EA0305A5FA8CF55DB950F8042C62
:100B300051F8043C82FA4CF582EA0305A5FA8CF5DB
:100B4000002DE8D02DBAB5FA85F424F0070423FA75
:100B500004F122FA04F202F0FF0001F0FF01FDE8C7
:100B60000445A0EB010070474FEAC40420F00300E5
:100B700050F8082B21F0030151F8083B0CFA04F45B
:100B800062EA040263EA0403C9E710F003041AD01E
:100B9000A1EB040120F00300E40750F8042B06D079
:100BA0000FD28B785FFAA2F4E41A06D12BB1CB787E
:100BB0005FFAB2F4E41A00D11BB920465DF8104B7D
:100BC000704701F1040150F8042BCC0721F0030118
:100BD00051F8043B48D824D222F07F4482FA4CF5E5
:100BE00094EA1325A5FA8CF50AD165B951F8043BAE
:100BF00084EA0204B4EB036F0ED150F8042BEBE748
:100C00004FEA132355E035F07F454DD10878FDE8D4
:100C10000445C0F1000070474FEA126203F0FF0381
:100C200047E002EA1C4482FA4CF594EA1345A5FA1F
:100C30008CF50AD165B951F8043B84EA0204B4EB9F
:100C4000034F0CD150F8042BEBE74FEA134330E08D
:100C500015EA1C4528D10B884FEA124229E04FEAD9
:100C6000124203EA1C4324E002F0FF0482FA4CF52E
:100C700094EA1365A5FA8CF50AD165B951F8043BDD
:100C800084EA0204B4EB032F09D150F8042BEBE7FC
:100C90004FEA13630DE015F0FF0F05D10B684FEA23
:100CA000122223F07F4304E04FF00000FDE80445EA
:100CB000704712BA1BBA82FA4CF482EA0304A4FA0F
:100CC0008CF5B5FA85F402FA04F203FA04F34FEA5C
:100CD0001260FDE80445A0EB1360704700000000BF
:100CE0000000000000000000000000000000000004
:100CF00000000000000000000000000000000000F4
:100D000090F800F06DE9024520F007016FF0000C4B
:100D100010F0070491F820F040F049804FF00004F3
:100D20006FF00700D1E9002391F840F000F10800CE
:100D300082FA4CF2A4FA8CF283FA4CF3A2FA8CF306
:100D40004BBBD1E9022382FA4CF200F10800A4FA6D
:100D50008CF283FA4CF3A2FA8CF3E3B9D1E90423C1
:100D600082FA4CF200F10800A4FA8CF283FA4CF3F8
:100D7000A2FA8CF37BB9D1E9062301F1200182FAB2
:100D80004CF200F10800A4FA8CF283FA4CF3A2FAB8
:100D90008CF3002BC6D0002A04BF04301A4612BAC6
:100DA000B2FA82F2FDE8024500EBD2007047D1E9C9
:100DB000002304F00305C4F100004FEAC50514F058
:100DC000040F91F840F00CFA05F562EA05021CBF29
:100DD00063EA050362464FF00004A9E781F0004191
:100DE00002E000BF83F0004330B54FEA41044FEA10
:100DF000430594EA050F08BF90EA020F1FBF54EAAB
:100E0000000C55EA020C7FEA645C7FEA655C00F046
:100E1000E2804FEA5454D4EB5555B8BF6D420CDD17
:100E20002C4480EA020281EA030382EA000083EA9A
:100E3000010180EA020281EA0303362D88BF30BD3A
:100E400011F0004F4FEA01314FF4801C4CEA113190
:100E500002D0404261EB410113F0004F4FEA0333EF
:100E60004CEA133302D0524263EB430394EA050F7A
:100E700000F0A780A4F10104D5F1200E0DDB02FAE9
:100E80000EFC22FA05F2801841F1000103FA0EF27D
:100E9000801843FA05F359410EE0A5F120050EF143
:100EA000200E012A03FA0EFC28BF4CF0020C43FA74
:100EB00005F3C01851EBE37101F0004507D54FF081
:100EC000000EDCF1000C7EEB00006EEB0101B1F5D1
:100ED000801F1BD3B1F5001F0CD349085FEA300017
:100EE0004FEA3C0C04F101044FEA445212F5800F22
:100EF00080F09A80BCF1004F08BF5FEA500C50F1BF
:100F0000000041EB045141EA050130BD5FEA4C0CA1
:100F1000404141EB0101013C28BFB1F5801FE9D2FE
:100F200091F0000F04BF01460020B1FA81F308BF21
:100F30002033A3F10B03B3F120020CDA0C3208DDED
:100F400002F1140CC2F10C0201FA0CF021FA02F1C8
:100F50000CE002F11402D8BFC2F1200C01FA02F138
:100F600020FA0CFCDCBF41EA0C019040E41AA2BF5D
:100F700001EB0451294330BD6FEA04041F3C1CDA25
:100F80000C340EDC04F11404C4F1200220FA04F045
:100F900001FA02F340EA030021FA04F345EA0301EF
:100FA00030BDC4F10C04C4F1200220FA02F001FAB1
:100FB00004F340EA0300294630BD21FA04F0294633
:100FC00030BD94F0000F83F4801306BF81F48011CC
:100FD0000134013D4EE77FEA645C18BF7FEA655C3F
:100FE00029D094EA050F08BF90EA020F05D054EA11
:100FF000000C04BF1946104630BD91EA030F1EBF16
:101000000021002030BD5FEA545C05D14000494119
:1010100028BF41F0004130BD14F580043CBF01F50C
:10102000801130BD01F0004545F0FE4141F47001F2
:101030004FF0000030BD7FEA645C1ABF19461046CD
:101040007FEA655C1CBF0B46024650EA013406BFCE
:1010500052EA033591EA030F41F4002130BD00BF8D
:1010600090F0000F04BF0021704730B54FF480644A
:1010700004F132044FF000054FF0000150E700BFCB
:1010800090F0000F04BF0021704730B54FF480642A
:1010900004F1320410F0004548BF40424FF0000117
:1010A0003EE700BF42004FEAE2014FEA31014FEA5A
:1010B00002701FBF12F07F4393F07F4F81F06051A9
:1010C000704732F07F4208BF704793F07F4F04BFF4
:1010D00041F40021704730B54FF4607401F00045D1
:1010E00021F000411CE700BF50EA010208BF704731
:1010F00030B54FF000050AE050EA010208BF704722
:1011000030B511F0004502D5404261EB41014FF48A
:10111000806404F132045FEA915C3FF4D8AE4FF092
:1011200003025FEADC0C18BF03325FEADC0C18BF75
:10113000033202EBDC02C2F1200300FA03FC20FAC6
:1011400002F001FA03FE40EA0E0021FA02F1144413
:10115000BDE600BF70B54FF0FF0C4CF4E06C1CEA2C
:1011600011541DBF1CEA135594EA0C0F95EA0C0F9D
:1011700000F0DEF82C4481EA030621EA4C5123EA10
:101180004C5350EA013518BF52EA033541F480113F
:1011900043F4801338D0A0FB02CE4FF00005E1FBF2
:1011A00002E506F00042E0FB03E54FF00006E1FB3C
:1011B00003569CF0000F18BF4EF0010EA4F1FF047F
:1011C000B6F5007F64F5407404D25FEA4E0E6D41BF
:1011D00046EB060642EAC62141EA55514FEAC520D0
:1011E00040EA5E504FEACE2EB4F1FD0C88BFBCF54C
:1011F000E06F1ED8BEF1004F08BF5FEA500E50F1FD
:10120000000041EB045170BD06F0004646EA0101C2
:1012100040EA020081EA0301B4EB5C04C2BFD4EBF4
:101220000C0541EA045170BD41F480114FF0000EED
:10123000013C00F3AB8014F1360FDEBF002001F05B
:10124000004170BDC4F10004203C35DA0C341BDCD5
:1012500004F11404C4F1200500FA05F320FA04F0A7
:1012600001FA05F240EA020001F0004221F00041DB
:1012700010EBD37021FA04F642EB06015EEA430E4E
:1012800008BF20EAD37070BDC4F10C04C4F120057E
:1012900000FA04F320FA05F001FA04F240EA020031
:1012A00001F0004110EBD37041F100015EEA430E02
:1012B00008BF20EAD37070BDC4F1200500FA05F222
:1012C0004EEA020E20FA04F301FA05F243EA0203A1
:1012D00021FA04F001F0004121FA04F220EA0200B0
:1012E00000EBD3705EEA430E08BF20EAD37070BDF6
:1012F00094F0000F0FD101F00046400041EB0101D6
:1013000011F4801F08BF013CF7D041EA060195F0B7
:10131000000F18BF704703F00046520043EB030371
:1013200013F4801F08BF013DF7D043EA060370475E
:1013300094EA0C0F0CEA135518BF95EA0C0F0CD069
:1013400050EA410618BF52EA4306D1D181EA0301AF
:1013500001F000414FF0000070BD50EA410606BFA9
:101360001046194652EA430619D094EA0C0F02D1EE
:1013700050EA013613D195EA0C0F05D152EA033633
:101380001CBF104619460AD181EA030101F0004151
:1013900041F0FE4141F470014FF0000070BD41F09A
:1013A000FE4141F4780170BD70B54FF0FF0C4CF474
:1013B000E06C1CEA11541DBF1CEA135594EA0C0F93
:1013C00095EA0C0F00F0A7F8A4EB050481EA030EE0
:1013D00052EA03354FEA013100F088804FEA0333C7
:1013E0004FF0805545EA131343EA12634FEA022295
:1013F00045EA111545EA10654FEA00260EF0004156
:101400009D4208BF964244F1FD0404F5407402D2A7
:101410005B084FEA3202B61A65EB03055B084FEA38
:1014200032024FF480104FF4002CB6EB020E75EB35
:10143000030E22BFB61A754640EA0C005B084FEA5D
:101440003202B6EB020E75EB030E22BFB61A7546DA
:1014500040EA5C005B084FEA3202B6EB020E75EB25
:10146000030E22BFB61A754640EA9C005B084FEA9D
:101470003202B6EB020E75EB030E22BFB61A7546AA
:1014800040EADC0055EA060E18D04FEA051545EA99
:1014900016754FEA06164FEAC30343EA52734FEA42
:1014A000C2025FEA1C1CC0D111F4801F0BD141EABB
:1014B00000014FF000004FF0004CB6E711F4801F20
:1014C00004BF01430020B4F1FD0C88BFBCF5E06F00
:1014D0003FF6AFAEB5EB030C04BFB6EB020C5FEA10
:1014E000500C50F1000041EB045170BD0EF0004E65
:1014F0004EEA113114EB5C04C2BFD4EB0C0541EA97
:10150000045170BD41F480114FF0000E013C90E693
:1015100045EA060E8DE60CEA135594EA0C0F08BF57
:1015200095EA0C0F3FF43BAF94EA0C0F0AD150EA56
:1015300001347FF434AF95EA0C0F7FF425AF1046E9
:1015400019462CE795EA0C0F06D152EA03353FF411
:10155000FDAE1046194622E750EA410618BF52EA8E
:1015600043067FF4C5AE50EA41047FF40DAF52EA62
:1015700043057FF4EBAE12E74FF0FF3C06E000BFFF
:101580004FF0010C02E000BF4FF0010C4DF804CD0C
:101590004FEA410C7FEA6C5C4FEA430C18BF7FEACC
:1015A0006C5C1BD001B050EA410C0CBF52EA430CFA
:1015B00091EA030F02BF90EA020F0020704710F17A
:1015C000000F91EA030F58BF994208BF90422CBF09
:1015D000D8176FEAE37040F0010070474FEA410C02
:1015E0007FEA6C5C02D150EA013C07D14FEA430C20
:1015F0007FEA6C5CD6D152EA033CD3D05DF8040B91
:10160000704700BF8446104662468C4619466346C2
:1016100000E000BF01B5FFF7B7FF002848BF10F199
:10162000000F01BD4DF808EDFFF7F4FF0CBF0120DE
:1016300000205DF808FB00BF4DF808EDFFF7EAFF5A
:1016400034BF012000205DF808FB00BF4DF808ED15
:10165000FFF7E0FF94BF012000205DF808FB00BF0A
:101660004DF808EDFFF7CEFF94BF012000205DF894
:1016700008FB00BF4DF808EDFFF7C4FF34BF0120A1
:1016800000205DF808FB00BF4FEA410C7FEA6C5C6C
:1016900002D150EA013C0AD14FEA430C7FEA6C5C6C
:1016A00002D152EA033C02D14FF0000070474FF0E4
:1016B000010070474FEA410212F5001215D211D510
:1016C0006FF47873B3EB625212D94FEAC12343F03F
:1016D000004343EA505311F0004F23FA02F018BFC1
:1016E000404270474FF00000704750EA013005D18A
:1016F00011F0004008BF6FF0004070474FF000004D
:10170000704700BF4FEA4102B2F1E04324BFB3F596
:10171000001CDCF1FE5C0DD901F0004C4FEAC00268
:101720004CEA5070B2F1004F40EB830008BF20F04C
:101730000100704711F0804F21D113F13872BCBF06
:1017400001F00040704741F480114FEA5252C2F15B
:101750001802C2F1200C10FA0CF320FA02F018BFA4
:1017600040F001004FEAC1234FEAD32303FA0CFCF7
:1017700040EA0C0023FA02F34FEA4303CCE77FEA86
:10178000625307D150EA01331EBF4FF0FE4040F4D0
:101790004000704701F0004040F0FE4040F400007F
:1017A000704700BF7BB972B90029BEBF00204FF05F
:1017B000004106E008BF00281CBF6FF000414FF059
:1017C000FF3000F0BFB9ADF1080C6DE904CE00297F
:1017D00009DB002B1ADB00F04DF8DDF804E0DDE951
:1017E000022304B07047404261EB4101002B1BDB38
:1017F00000F040F8DDF804E0DDE9022304B04042E7
:1018000061EB4101524263EB43037047524263EB89
:10181000430300F02FF8DDF804E0DDE9022304B013
:10182000404261EB41017047524263EB430300F0D9
:1018300021F8DDF804E0DDE9022304B0524263EB55
:101840004303704753B94AB9002908BF00281CBF99
:101850004FF0FF314FF0FF3000F074B9ADF1080CDC
:101860006DE904CE00F006F8DDF804E0DDE90223BE
:1018700004B070472DE9F047089D04468E46002BC2
:101880004DD18A42944669D9B2FA82F252B101FA34
:1018900002F3C2F1200120FA01F10CFA02FC41EA44
:1018A000030E94404FEA1C48210CBEFBF8F61FFAC9
:1018B0008CF708FB16E341EA034306FB07F1994264
:1018C0000AD91CEB030306F1FF3080F01F81994217
:1018D00040F21C81023E63445B1AA4B2B3FBF8F0F1
:1018E00008FB103344EA034400FB07F7A7420AD978
:1018F0001CEB040400F1FF3380F00A81A74240F2A0
:1019000007816444023840EA0640E41B00261DB10A
:10191000D4400023C5E900433146BDE8F0878B423F
:1019200009D9002D00F0EF800026C5E900013046FE
:101930003146BDE8F087B3FA83F6002E4AD18B42D8
:1019400002D3824200F2F980841A61EB0303012082
:101950009E46002DE0D0C5E9004EDDE702B9FFDE6E
:10196000B2FA82F2002A40F09280A1EB0C014FEA19
:101970001C471FFA8CFE0126200CB1FBF7F307FB76
:10198000131140EA01410EFB03F0884208D91CEB19
:10199000010103F1FF3802D2884200F2CB804346B6
:1019A000091AA4B2B1FBF7F007FB101144EA014495
:1019B0000EFB00FEA64508D91CEB040400F1FF3124
:1019C00002D2A64500F2BB800846A4EB0E0440EA12
:1019D00003409CE7C6F12007B34022FA07FC4CEA1B
:1019E000030C20FA07F401FA06F31C43F9404FEA0E
:1019F0001C4900FA06F3B1FBF9F8200C1FFA8CFE23
:101A000009FB181140EA014108FB0EF0884202FA76
:101A100006F20BD91CEB010108F1FF3A80F0888037
:101A2000884240F28580A8F102086144091AA4B2F4
:101A3000B1FBF9F009FB101144EA014100FB0EFE75
:101A40008E4508D91CEB010100F1FF346CD28E45A4
:101A50006AD90238614440EA0840A0FB0294A1EB35
:101A60000E01A142C846A64656D353D05DB1B3EB92
:101A7000080261EB0E0101FA07F722FA06F3F140C2
:101A80001F43C5E9007100263146BDE8F087C2F169
:101A90002003D8400CFA02FC21FA03F391400143E1
:101AA0004FEA1C471FFA8CFEB3FBF7F007FB10361A
:101AB0000B0C43EA064300FB0EF69E4204FA02F4C6
:101AC00008D91CEB030300F1FF382FD29E422DD919
:101AD000023863449B1B89B2B3FBF7F607FB16334E
:101AE00041EA034106FB0EF38B4208D91CEB0101CE
:101AF00006F1FF3816D28B4214D9023E6144C91A4E
:101B000046EA004638E72E46284605E70646E3E65D
:101B10001846F8E64B45A9D2B9EB020864EB0C0E67
:101B20000138A3E74646EAE7204694E74046D1E776
:101B3000D0467BE7023B614432E7304609E7644424
:101B4000023842E7704700BF00207047002070470E
:101B500000207047002070470020704770470368DE
:101B600053F8683C184470477047036853F8743C56
:101B70001844704708B5024801F0ECFA002008BD8F
:101B8000A00C002010B50446006808B116F0CAFE8B
:101B9000204610BDF8B50546064655F8044B8CB9ED
:101BA0000D4F386818B14FF0FF3102F061FF346813
:101BB00024B9284616F048FF2C463560386808B12D
:101BC00002F06EFFAC4204D0044905488B220DF0B0
:101BD0000FFF2046F8BD00BF2028002048F3010079
:101BE00088F3010008B50348FFF7D4FFBDE80840BB
:101BF00016F032BF7CD1002008B50348FFF7CAFFBA
:101C0000BDE8084016F046BF7CD1002038B5054637
:101C1000064B45F8043B0446FFF7E4FF28460DF069
:101C200045FA2046FFF7E8FF204638BDB4F301002F
:101C300010B50446FFF7EAFF20460C2116F070FEAF
:101C4000204610BD70B5044621BB1368236019BB44
:101C5000506953F8843CE05009BB9069234643F82F
:101C6000840FF1B902F10C000568C4F8845046688D
:101C700055F8840C1E50B1B904321368236053F830
:101C8000843C5268E2508B0702D5204613F05EFE7A
:101C9000204670BD054BD9E704480023DBE7044824
:101CA000DCE70448E0E7044AE7E700BF60F701002B
:101CB00060F80100CCF60100C4F601000022022108
:101CC000FFF7C0BFA0F18400F8E7D0F800C0ACF186
:101CD000240CDCF800C06044F0E710B50446FFF7C0
:101CE000EDFF2046882116F01BFE204610BDA0F116
:101CF0008400F2E7D0F800C0ACF1240CDCF800C09E
:101D00006044EAE70A460021FFF79CBF10B5054B87
:101D10000360044615F04EFF204615F0F5FF2046FF
:101D200010BD00BF9420020010B502238CB041F218
:101D30000202CDE9093241F2170141F21603CDE961
:101D40000731012042F20A03CDE9053041F2130CBC
:101D500041F21203CDE9033C0D4C4FF4405E42F2D8
:101D60000303CDE9013E42F20203009343F2030272
:101D700043F2010343F20201204600F063F9054AF1
:101D8000054920460CB0BDE8104016F07BBB00BFF3
:101D9000A00C0020000000209D1D000010B504468E
:101DA00000F56270FFF7B2FF04F55270FFF7AEFF67
:101DB00004F54470FFF7E6FE04F53E70FFF726FFDA
:101DC00004F52C7015F09AFC04F51F7015F096FCC4
:101DD00004F5127015F092FC04F5E870FFF796FF19
:101DE00004F5A07015F09AFE04F58E70FFF7CAFE98
:101DF0002046054B40F88C3F13F0D8FC2046FFF7F7
:101E00005DFF204610BD00BF601F02000D4B212268
:101E100010B41A7005225A70D0F84023033302F12F
:101E20001C0152F8044B43F8044B8A42F9D1128842
:101E30001A80D0F88800034903685DF8044B1B69D9
:101E400021221847BF1000200D4B102210B41A7029
:101E50000A225A70D0F84423033302F10C0152F8DD
:101E6000044B43F8044B8A42F9D112781A70D0F827
:101E70008800034903685DF8044B1B69102218476A
:101E80009C10002070B5224D13232B7000236B7023
:101E900000F5D476D0F82833C5F803300446D0F8DE
:101EA0003433C5F80730304601F06EFB07EE900A78
:101EB00094EDCB7AF8EEE77AC7EE877A17EE903A90
:101EC000C5F80B30D4F82833032B1FD1304601F06E
:101ED0005EFB07EE900A9FED0F7AF8EEE77AC7EE09
:101EE000276A94EDCB7AC6EE877A9FED0B7A67EE80
:101EF000877A17EE903AD4F88800C5F80F30036857
:101F000003491B69BDE87040132218470023F2E71C
:101F1000F1100020002474490000704270B5134C89
:101F200013490D2305463426E01C6370267018F013
:101F300049FC104904F1080018F044FC05F5447010
:101F400013F098FF014604F1240018F03BFCD5F88B
:101F50000C1304F1100018F035FCD5F88800036864
:101F6000324621461B69BDE87040184768100020C2
:101F7000DCF80100E0F801000C4B132210B41A70D9
:101F80000C225A70D0F83023033302F1100152F8BA
:101F9000044B43F8044B8A42F9D1D0F88800034936
:101FA00003685DF8044B1B6913221847AC1000202E
:101FB00010B500F53A74204610F0FAFEB0FA80F140
:101FC00049092046BDE8104010F0D4BE38B500F5F0
:101FD00039750446284610F0EBFEB0FA80F1490945
:101FE000284604F53B7410F0C5FE204610F0E0FED4
:101FF000B0FA80F149092046BDE8384010F0BABE79
:1020000010B4D0E901320168541001EB6200D2072C
:1020100048BF0A595DF8044B48BFD3581847000021
:1020200008B5012110F0A6FE054B1B7803201BB15B
:10203000BDE808400EF02CB8BDE808400EF036B8F8
:10204000C8C900202DE9F04F85B004460F469046E0
:10205000994611F043FD039012F0C2FE6249039AC3
:10206000216003466149204613F0EEF86048206085
:1020700000F580700025C4F884004FF0110A04F1C7
:102080008C0014F099F804F59E7B52462946C4F85A
:102090001C5104F5907018F09BF80E99A4F8325179
:1020A0005846C4F83C510DF063F804F5A0764FF0A3
:1020B000FF334246009339464B46304615F040FC0C
:1020C0005846012110F056FE2A463046082115F0E8
:1020D0007EFC3046474915F098FC1099C4F83451FD
:1020E00084F8385104F5D47001F024FA119904F5FC
:1020F000127015F021FB129904F51F7015F01CFBEE
:1021000004F53978169904F52C7015F015FB04F5D3
:102110003A791399C4F8E45240460DF029F804F5D1
:102120003B771499C4F8E85248460DF021F8159908
:10213000C4F8EC5238460DF01BF804F53D760F99C3
:10214000C4F8F05204F53C700DF012F81799C4F879
:10215000F45230460DF00CF81899274A04F53E70F9
:1021600015F0AAFA03230F22C4E9C12329465246D7
:10217000C4F8105304F5457018F02AF8A4F8265353
:1021800004F5527015F086FD04F5627015F082FDBD
:102190002946484610F0EEFD2946404610F0EAFD7B
:1021A0000121384610F0E6FD84F83C531E2016F05D
:1021B0008BFBC4F840030D2016F086FBC4F84403E3
:1021C000102016F081FBC4F83453C0E90255C0E971
:1021D0000055C4F830032946304610F0CBFD2046A8
:1021E00005B0BDE8F08F00BF7C1E0200C4F6010000
:1021F00060F7010020A107000000C07F70B5044611
:10220000154602B972B6D4F83033032905D8DFE891
:1022100001F0021F252200229A609A68AAB9DA68A2
:102220009AB91A688AB95E687EB904F56270C4F812
:10223000346315F0BFFCD4F82833032B04F53A704F
:102240000CBF0121314610F095FD05B962B670BD95
:102250000022DA60E1E700225A60DEE700221A601D
:10226000DBE701220021FFF7C9BF01221146FFF77A
:10227000C5BF02B972B680F83C1302B962B67047A6
:1022800038B504460D4601B972B604F5D47001F0B4
:1022900089F92A4600212046FFF7EBFF05B962B60F
:1022A00038BD10B4D0F808430C708A70D0F888306C
:1022B0001A681469D0F80823184623465DF8044BC1
:1022C0001847000010B586B00446684680E80C0048
:1022D00006A800E90C00039110E90700034BE36036
:1022E00084E80700204606B010BD00BF01200000B2
:1022F00070B504468AB0154602B972B6C4F8281300
:10230000D4F8341319B904F53A7010F033FDD4F849
:102310002833032B46D8DFE803F049021C29274B5A
:10232000264A049306AE0023214630460593FFF764
:10233000C9FF234A0023CDE90223099B009396E8B5
:102340000E0004F5527015F05EFC05B962B60AB0D5
:1023500070BD04F5527015F02DFC012104F53970A3
:1023600010F008FD002104F53B7018E004F55270F0
:1023700015F020FC012104F5397010F0FBFC002160
:1023800004F53B7010F0F6FCD4F83433002BDCD1AC
:1023900004F5627015F00EFC012104F53A7010F09E
:1023A000E9FCD2E704F5527015F004FC002104F5B5
:1023B000397010F0DFFC0121D5E700BFCD1F000010
:1023C00020A1070038B504460D460021FFF758FF4D
:1023D000204601220221FFF78BFF294620460022DA
:1023E000BDE83840FFF75DBF10B501210446FFF797
:1023F00047FF20460122BDE810400221FFF778BFC9
:102400002DE9F0418AB0002706AD134BD0F82883A0
:10241000049304460E463B4601460F4A059728465C
:10242000FFF750FF0D4A0023CDE90223099B0093DB
:1024300095E80E0004F5527015F0E5FB3A4641466A
:102440002046FFF755FF3A4631462046FFF729FF61
:102450000AB0BDE8F08100BFCD1F0000A0860100DA
:102460002DE9F04104468AB00F46164602B972B60D
:102470000DF11808184B0493012500232146164A34
:10248000C4F8345340460593FFF71CFF134A00235A
:10249000CDE90223099B009398E80E0004F56270D1
:1024A00015F0B1FB032F06D8DFE807F0020A0E1281
:1024B000D4F830339D6006B962B60AB0BDE8F08149
:1024C000D4F83033DD60F6E7D4F830331D60F2E73E
:1024D000D4F830335D60EEE7B11F000090D0030008
:1024E00010B501210446FFF7CBFE20460122BDE8CE
:1024F00010400021FFF7B4BF10B501210446FFF7DB
:10250000BFFE012220461146BDE81040FFF7A8BFDC
:1025100010B501210446FFF7B3FE20460122BDE8B5
:1025200010400221FFF79CBF10B59EB000223B4B2C
:10253000009301926C4603CC394BC3F8051039491E
:10254000C3F80100CDE9021203CCC3F80E103649DE
:10255000C3F80A00CDE9041203CCC3F817103349BD
:10256000C3F81300CDE9061203CC19623049D861D3
:10257000CDE9081203CCC3F829102E49C3F8250071
:10258000CDE90A1203CCC3F832102B49C3F82E0050
:10259000CDE90C1203CCC3F83B102849C3F837002F
:1025A000CDE90E1203CC596425491864CDE9101207
:1025B00003CCC3F84D102349C3F84900CDE91212EA
:1025C00003CCC3F856102049C3F85200CDE91412C9
:1025D00003CCC3F85B00C3F85F101C49CDE91612A9
:1025E00003CC99661A495866CDE9181203CCC3F892
:1025F00071101849C3F86D00CDE91A1203CCC3F865
:102600007A101549C3F87600CDE91C12224603CA98
:10261000C3F87F00C3F883101EB010BD851E0000F4
:1026200004000020C5230000692C00004D2A000092
:10263000812B00000D1E0000EF2F00002F2F000047
:10264000C92D000089260000491E00008D2E0000C3
:10265000791F00001D1F00000124000070B5044612
:102660000D46261D002110F085FB05F01F013046A8
:1026700015F013FA0021304615F00FFA05462046F2
:10268000FFF7CEFCE8B270BD2DE9F04100F59E7772
:10269000064604213846FFF7E1FF05210446384687
:1026A000FFF7DCFF062105463846FFF7D7FF1B4939
:1026B000034609204870C4F38000C870C4F3C0000A
:1026C0000871C4F300104871C4F340108871C5F359
:1026D000C0000872C5F300104872C5F3401088723C
:1026E000C3F380000873C3F3C0004873C3F3001042
:1026F0008873C3F34010C873C4F38014D6F88800FD
:10270000CC71C5F38015C3F3801311220B740A70CA
:10271000CD720368BDE8F0411B691847E010002046
:10272000F8B505460C462F1D002104F01F0416467F
:1027300010F020FB44F08001384615F0AEF9314628
:10274000384615F0AAF92846FFF76AFCF8BD08B527
:10275000012142780830FFF7E3FF08BD08B540F6D5
:10276000B73399425DD840F61C3399425BD840F6A6
:102770008B23994259D840F68713994257D8B1F51F
:102780000C6F56D240F61503994254D840F2397373
:10279000994252D840F29E63994250D8B1F5BE6F2B
:1027A0004FD240F27C5399424DD840F2EB439942CC
:1027B0004BD840F27D43994249D840F22343994295
:1027C00047D840F2BA33994245D840F2653399422E
:1027D00043D8B1F5437F42D240F2CA23994240D850
:1027E000B1F5207F3FD2B1F5127F3ED8B1F5077F1A
:1027F0003DD2B1F5F27F3CD8B1F5DE7F3BD8B1F5E3
:10280000C57F3AD8B1F5B17F39D8F42994BF0021FA
:102810000121437823F01F0319434170FFF797FF0D
:1028200008BD1921F5E71821F3E71721F1E7162173
:10283000EFE71521EDE71421EBE71321E9E712217A
:10284000E7E71121E5E71021E3E70F21E1E70E219A
:10285000DFE70D21DDE70C21DBE70B21D9E70A21BA
:10286000D7E70921D5E70821D3E70721D1E70621DA
:10287000CFE70521CDE70421CBE70321C9E70221FA
:10288000C7E708B5022182780830FFF749FF08BD85
:1028900070B5D0F8402390F836311278044600F530
:1028A0009A75002A48D123F0080384F83631284667
:1028B000FFF7E7FFD4F8403394F836215B7822F035
:1028C000030203F00303134384F836312846FFF76D
:1028D000D8FFD4F840339B78012B94F836310CBFE5
:1028E00043F0040323F0040384F836312846FFF74D
:1028F000C8FFD4F8442394F836311278FAB143F083
:10290000800384F836312846FFF7BBFFD4F8403304
:10291000DB78402B00F0848019D8082B12D8002BCC
:1029200000F08180013B072B00F28580DFE803F097
:10293000757383718383837D43F00803B5E703F0E8
:102940007F03DEE7103B5A425A41002309E0C92BBE
:102950006DD05AD8802B4FF000026AD0C82B6BD1B3
:10296000042394F8351101F01F0141EA421284F862
:10297000352194F8382122F00702134384F83831C6
:10298000284604F59E76FFF7E2FE94F838210921E7
:102990003046FFF7C5FED4F8403328469988FFF744
:1029A000DDFE00213046FFF759FE94F834318342B2
:1029B00044D101213046FFF751FE94F8353183426E
:1029C0003CD102213046FFF749FE94F8363183426C
:1029D00034D103213046FFF741FE94F8373183426A
:1029E0002CD109213046FFF739FE94F83831834263
:1029F00024D1D4F830335B68012B26D12046002245
:102A0000BDE870400321FFF7F9BBCA2B13D10622A2
:102A10009BE7032299E7042297E700220323A0E71C
:102A2000002202239DE71A469BE702228DE705223A
:102A30008BE7012395E70022134692E72046002208
:102A4000BDE870400321FFF70BBD70BD73B5B1F851
:102A50000730843B9BB240F6343293420E4656D840
:102A6000D1F80D3007EE103AB5EEC07AF1EE10FA5B
:102A70004DD9F2EE047AB4EEE77AF1EE10FA46DAC6
:102A8000D1F80930013BB3F57A7F40D2CB78012BE6
:102A90003DD84B79012B3AD80B79032B37D8D1F895
:102AA000113007EE103AB4EEE77AF1EE10FA2EDCB0
:102AB000B5EEC07AF1EE10FA29D9D1F8153007EE4B
:102AC000103AB4EEE77AF1EE10FA20DCB5EEC07AF7
:102AD000F1EE10FA1BD9D1F8193007EE103AB4EE26
:102AE000E77AF1EE10FA12DCB5EEC07AF1EE10FAE8
:102AF0000DD9D1F81D3007EE103AB4EEE77AF1EEB9
:102B000010FA04DCB5EEC07AF1EE10FA06D8012214
:102B1000314602B0BDE87040FFF7C3BB8B79202B74
:102B200026D8032B1AD8013B012BF0D8D0F840232C
:102B3000F31C06F11F0453F8045B42F8045BA34244
:102B4000F9D11B8813800190FFF7A2FE0198D0F8FD
:102B500030335A68002ADBD00622D9E7043B012231
:102B6000DBB202FA03F3054A1A40002ACFD0DDE7B0
:102B7000402BDBD0802BCAD1D8E700BF111000104A
:102B800038B58B6807EE103AB5EEC07AF1EE10FA60
:102B900005460C4625D9DFED247AB4EEE77AF1EE4E
:102BA00010FA1EDC4B6807EE103AB5EEC07AF1EE73
:102BB00010FA16D9DFED1D6AB4EEE67AF1EE10FADE
:102BC0000FDCCB6807EE103AB5EEC07AF1EE10FAE2
:102BD00007D9B4EEE77AF1EE10FA02DCCB78012BDC
:102BE00006D9012221462846BDE83840FFF759BBE7
:102BF000D0F84423CB1C0F3153F8040B42F8040BDC
:102C00008B42F9D11B7813702846FFF741FE72B64C
:102C1000012385F83C3362B6D5F830335A68002A70
:102C2000E0D00622DEE700BF0000C84200004843B3
:102C300038B5044600F10805C27803212846FFF79D
:102C40006FFD227800212846FFF76AFD2046FFF736
:102C50007EFD2046FFF715FE227909212846FFF761
:102C60005FFD38BD000000002DE9F0432DED028B23
:102C700090F83C3383B004460D463BB9052203B0BF
:102C8000BDEC028BBDE8F043FFF70BBB00F5127003
:102C900014F0B0FD40B9D4F844331B78012B03D1B4
:102CA000072229462046EAE704F51F7014F0A2FD2A
:102CB00020B9D4F844331B78002BF1D0D4F830334A
:102CC0001B68012B01D10822EBE7D4F84493D9F813
:102CD000090007EE100AF6EE007A67EE877A04F52F
:102CE000D47617EE900AFEF7DDF9D4F84083D8F8D1
:102CF000062098F80330534307EE903A02460B46FD
:102D0000B8EEE78AFEF726FA2DA3D3E90023FEF7F3
:102D100021FAFEF7F7FC9FED287AD8F80A3007EE83
:102D2000900AC7EE277A304627EE887A07EE903A67
:102D3000C7EE277A9FED217AC4EDCB7AD9F805202A
:102D4000D8F81630D9F8011006EE902AC6EE876A38
:102D5000D8F81A2007EE102A28EE077A8DED007AAF
:102D600007EE103A28EE077A17EE103A26EEA77A09
:102D700017EE102A07EE101A67EE877A17EE901AF0
:102D800000F0F0FB304600F011FC98B194F83731B8
:102D900063F07F0384F8373104F59A70FFF748FF3A
:102DA000304600F0C5FC002203212046FFF7A0FAC0
:102DB000002276E70A2274E700007A44000070429D
:102DC000182D4454FB21094013B590F83731019177
:102DD00003F07F0380F83731044600F59A70FFF75F
:102DE00027FF01990022204602B0BDE81040FFF7FE
:102DF00058BA000037B50446002500F59A70C4F8AB
:102E0000345184F838510190FFF712FF94F83731AC
:102E1000019823F0200384F83731FFF709FFD4F835
:102E200040331D70D4F840335D70D4F840339D704A
:102E3000D4F840334FF07F52C3F80A2052221A715F
:102E400003225A712022DA70D4F840336FF06F02F7
:102E50009A710122DA711D725D72D4F844331D70CB
:102E6000D4F840334FF08142C3F80E20C3F812204B
:102E7000054AC3F816202046C3F81A2003B0BDE85F
:102E80003040FFF705BD00BFCDCCCC3D37B50D467A
:102E900000210446FFF7F4F9002211462046FFF70F
:102EA000ADF9002201212046FFF7A8F900220221F6
:102EB0002046FFF7A3F9002203212046FFF79EF9E1
:102EC00004F53D70012101900FF054FF002101989D
:102ED0000FF050FF2046FFF78DFF00220221204611
:102EE000FFF706FA04F5127014F084FC0246A8B944
:102EF00001462046FFF7B4FA04F52C7014F07AFC72
:102F0000024618B902212046FFF7AAFA00222946F4
:102F1000204603B0BDE83040FFF7C3B904F51F7089
:102F200014F068FC02460028E6D10121E1E7D0F860
:102F30003033F7B51A68012A04460D4605D1082238
:102F400003B0BDE8F040FFF7ACB95B68012B01D1DD
:102F50000622F5E700F5127014F04CFC012844D16C
:102F600094F8363104F59A7763F07F0384F83631AC
:102F70003846FFF786FCD4F84023D2F80610D37801
:102F80004B4307EE903AD2F80E30D2F81220F8EE0A
:102F9000E77A07EE103A27EE877A04F5D47617EE33
:102FA000103A8DED007A07EE102A67EE877A00213D
:102FB00017EE902A304600F0D5FA304600F068FB54
:102FC00094F8373163F07F0384F837313846FFF7E0
:102FD0002FFE304600F0ACFB002203212046FFF715
:102FE00087F9002229462046AAE70722FAE7D0F807
:102FF0003033F7B51A68012A04460D4605D1082278
:1030000003B0BDE8F040FFF74CB95B68012B01D17C
:103010000622F5E700F51F7014F0ECFB012844D1FF
:1030200094F8363104F59A7703F07F0384F836314B
:103030003846FFF726FCD4F84023D2F80610D378A0
:103040004B4307EE903AD2F80E30D2F81220F8EE49
:10305000E77A07EE103A27EE877A04F5D47617EE72
:10306000103A8DED007A07EE102A67EE877A00217C
:1030700017EE902A304600F075FA304600F008FB53
:1030800094F8373163F07F0384F837313846FFF71F
:10309000CFFD304600F04CFB002203212046FFF715
:1030A00027F9002229462046AAE70722FAE700006E
:1030B00030B593B0044624490022684612F0AAFEB7
:1030C0002249002206A812F0A5FE214900220CA8E0
:1030D00012F0A0FE06AA0CAB6946204612F008F8D2
:1030E0000CA8FEF74FFD06A8FEF74CFD68462546E6
:1030F000FEF748FD204611F057FF04F544712046C5
:1031000012F03CF855F88C3B53F8840C23582044BB
:103110005B6F98470146284612F09CFA41F6AB6176
:10312000284612F0D3FA0121284612F0E1FE284683
:10313000012112F0AFF94FF0FF31284613B0BDE87E
:10314000304012F0C5B900BFE7F80100F5F8010002
:1031500003F901002DE9F0470022D6B004461146DC
:10316000FFF7C6F82046FFF745FE00278D4B129368
:1031700016AD12AE139796E80C0021462846FFF7CD
:10318000A1F895E80F0004F5D47C04F5127A8CE8D8
:103190000F0004F51F790221504614F0E3FA0221D2
:1031A000484614F0DFFA804BC5E900370DF10808F6
:1031B00095E80C0021464046FFF784F8059B0093F4
:1031C00098E80E00504614F0F8FA784BC5E900373D
:1031D0000DF1180895E80C0021464046FFF772F8FB
:1031E000099B009398E80E00484614F0E6FA704BED
:1031F000C5E900370DF1280895E80C002146404646
:10320000FFF760F80D9B009398E80E00504614F00D
:10321000B7FA684BC5E900370DF1380895E80C009E
:1032200021464046FFF74EF8119B009398E80E00A8
:10323000484604F52C7814F0A3FA0221404614F015
:1032400091FA5D4BC5E90037214695E80C00304600
:10325000FFF738F8F368009396E80E00404614F044
:10326000ACFA504614F0C6FA0246002843D1014693
:103270002046FFF7F5F8404614F0BCFA024618B9AC
:1032800002212046FFF7ECF8002201212046FFF73B
:103290002FF82046FFF70CFF484F0022012120465F
:1032A000FFF726F8002104F18C0012F0B9FF036843
:1032B000C4F8880004F58E711B6C98470022022127
:1032C0002046FFF715F8D4F88800D4F808230368DF
:1032D00029465B6998470028C4F838031CDD2A7822
:1032E000D4F808138A420ED16978D4F8043399428D
:1032F0002EDB022242E0484614F07CFA0246002807
:10330000B9D10121B4E7D4F888000368521A5B6987
:10331000294498470028E7DC00212046FEF7B0FF4B
:1033200094F8373103F07F0384F8373104F59A704D
:10333000FFF77EFC2046FFF75DFDD4F888000368A8
:103340009B689847002201212046FEF7D1FFA4E7A1
:1033500001EBC1023A44CB00D2F801601EB9D2F8A9
:103360000520D207C5D5D4F82823032A0BD1581835
:10337000385C012807D9D4F8340320B929462046FF
:10338000FEF78FFF9FE70B443B442946D3F80530F7
:103390005A1004EB6300DB0744BFA3589E59B047A3
:1033A00091E700BFE9230000E1240000F9240000B8
:1033B000632200006B2200001125000004000020A1
:1033C00030B52DED028B044600F1100585B00121CA
:1033D00028460FF0CFFCD4F89820A36E01329A4211
:1033E000C4F8982045DAD4F89C30002B41D1217DD7
:1033F00001295AD00229D4F894306ED000295ED128
:103400009B00013394ED1F7A07EE903A77EE076A3E
:10341000F8EEE77AD4F8903086EEA78A9A4237EE33
:10342000488A36DB02232375D4F88C30C4F89430F4
:10343000FDEEC87ABDEEC77A17EE903A17EE102A65
:10344000934213D0F6EE007A78EE277A04F1280042
:10345000FDEEE77A17EE903ADA17CDE90232636AA9
:10346000009304F118030ECB14F0F0FB84ED1F8AD7
:1034700025E004F1280014F09DFBD4F89C301BBB20
:10348000E368002B3ED1214921484FF4FD720CF036
:10349000AFFAD4ED207AF4EEC87AF1EE10FAA2BFBA
:1034A00001232375B0EE678AC2E7D4F890309A42C0
:1034B00005DB02232375D4F88C30C4F89430D4F89B
:1034C00094300133C4F894300021284605B0BDEC97
:1034D000028BBDE830400FF04DBC9B00013394EDF2
:1034E0001F7A07EE903A77EE076AF8EEE77A86EEF3
:1034F000A78A37EE488ABDEEC77AFDEEC87A17EE86
:10350000903A9BE720469847DEE700BF0FF901009D
:103510004BF9010010B4D0E901320168541001EBFD
:103520006200D20748BF0A595DF8044B48BFD35820
:103530001847000038B500250446C56040F8105F04
:103540000BF016FE054B6362054BA461C4E9073519
:1035500004F1280014F09EFB204638BD153500000C
:10356000C133000007EE101AF6EE007A77EE277AE4
:103570000367FDEEE77A009BC0ED1A7AC2664367E7
:10358000002110300FF0F6BBD0F898007047D0ED56
:103590001F7AB6EE007A77EE877AFDEEE77A17EEBD
:1035A000900A70470123C0F89C307047D0ED1C7A18
:1035B000B0EE007AC7EE277A002310B50446C0F8B3
:1035C000983017EE900A15F041FCDFED2F5A94ED7C
:1035D0001B6AD4ED1C6A9FED2D7AA16E07EE900A4E
:1035E00067EEA57A26EE065AC4ED1E7A67EE877A54
:1035F00036EEA67AC4ED1F7AC5EE077A0123C4F829
:103600009430FDEEE77A17EE903AC4ED217AF7EEAA
:10361000007A87EE867A07EE901A27EE257A94EDE7
:103620001D6A84ED207AF8EEE75A36EE865A65EE8A
:10363000865AC5EE857AFDEEE77A17EE902A934218
:10364000BABFC6EE865A5B42531AC4ED227ABFBF98
:1036500007EE903AF8EEE77A67EEA57AFDEEE77AA4
:10366000B8BF17EE903AF2EE047AB4EEE77AF1EED4
:1036700010FAC4F88C300B44C4F8903046BFC4ED47
:10368000207A0020012010BD00247449560E2D3FE1
:10369000D0ED1C7AB0EE007AC7EE277A38B5002557
:1036A0000446C0F8985017EE900A15F0CFFB9FED36
:1036B0001D7ADFED1D6A94ED1B6A1C4AA26607EEB7
:1036C000900A67EE877A0123C4ED1E7A67EEA67A28
:1036D000D4ED1C6AC4ED1F7A76EEA66A66EE067A11
:1036E000C4F89430C7EEA65AC4F88C306FF000438B
:1036F000C4F890302846F7EE006AC6EE867AFDEEF2
:10370000E55A27EE877AF2EE047AB4EEE77AF1EE24
:1037100010FA58BFF0EE477AC4ED215AC4ED207A72
:1037200038BD00BF00247449560E2D3F00943577F4
:10373000D0ED1F7AB6EE007A77EE877A1FB5FDEEF0
:10374000E77A0023C0F89C30037517EE903ADA1739
:10375000CDE90232436A009300F118030ECB283002
:1037600014F074FA05B05DF804FB08B5014610B119
:10377000132001F0EDFE002008BD000008B5EFF3B6
:1037800005832BB9EFF3108313B9EFF3118333B132
:103790006FF0050000F005FA6FF0050008BDDFF8D6
:1037A00008C000DFFAE700BF6B370000EFF31083BB
:1037B0002BB9EFF31180003818BF012070470120AA
:1037C000704710B520B10378F32B01D1002906DA38
:1037D0006FF0030102F01AFA6FF0030010BD0C3015
:1037E00050E8003F23EA010240E8002404B1F7E773
:1037F0001846F3E738B50546A0B1846802686CB195
:1038000014F0030302D1C1680F2926D86FF0080114
:10381000002002F0FBF90024204638BDC368002BCD
:10382000F4D11546104BD3F8900078B100F083FC2A
:103830000446A0B10123A3700023C4E90233F3229C
:10384000094B2270094A65605A66E5E7D3F88000A3
:103850000122102100F0FCFBEAE71546EBE76FF0D0
:10386000040102F0D3F9D7E78C00002049390000A9
:1038700070B5054610B10378F32B07D028466FF0DA
:10388000030102F0C3F96FF0030070BD836863B1F8
:10389000284601F05DFC00226FF0020101F008FDF6
:1038A000A8680028F4D101F0D7FCAB78002613F00B
:1038B00001032E700FD0094BD3F89040294624B154
:1038C000204600F052FC3046DFE7D3F8800000F0DD
:1038D000F3FB2046D9E71846D7E700BF8C0000204D
:1038E000930710B502F0010422D400F10C0384B157
:1038F00053E8000F00EA01028A4203D0BFF32F8F82
:10390000002005E020EA010243E8002404B1EFE7CB
:1039100010BD53E8000F084203D1BFF32F8F0020E2
:1039200005E020EA010243E8002404B1F1E7EFE7F3
:10393000C06801EA00031CB18B4218BF0020E7E712
:10394000002B08BF0020E3E7F8B58468054604B9FA
:10395000F8BD94F82320616AA7682846FFF7C0FFE6
:10396000064638B1204601F0FCFB002231462046D5
:1039700001F09EFC3C46EAE7F8B50D4617461E46A8
:10398000044620B10378F32B01D1002907DA204641
:103990006FF0030102F03AF96FF00300F8BDFFF792
:1039A0009FFF0028FAD186B13146432001F0D0FDB7
:1039B00040B1074B5E692046314601F0B7FB7562A6
:1039C00086F823706FF00100E8E76FF00200E5E78A
:1039D0008C0000202DE9F041064620B10378F32B3E
:1039E00001D1002909DA6FF00301304602F00EF927
:1039F0006FF003052846BDE8F08100F10C0353E8A1
:103A0000002F42EA010543E8005000B1F7E7B4682F
:103A10001CB9204601F020FCECE794F82320616AF1
:103A2000D4F808803046FFF75BFF074678B194F87A
:103A300023309B0756BF656A054620EA05052046E8
:103A400001F08FFB00223946204601F031FC44464C
:103A5000DEE7000008B50246EFF3058333B100202E
:103A60006FF0050102F0D2F8002008BDFFF79EFEBE
:103A70000028F4D1DFF808C0104600DFF5E700BFEA
:103A8000F537000038B502460D46EFF305834BB11C
:103A900092B96FF00301104602F0B8F86FF003041A
:103AA000204638BDFFF782FE0028F1D1DFF830C094
:103AB000104600DF0446F3E71378F32BE9D1002D1D
:103AC000E7DB02F10C0353E8001F41EA050443E879
:103AD000004000B1F7E7104601F03CFAE0E700BF14
:103AE000D539000010B502460C46EFF305832BB123
:103AF00021461046BDE81040FFF763BEFFF756FEB3
:103B00000028F5D11046DFF808C000DF10BD00BF67
:103B1000C3370000F8B504460E4617461D46EFF3BE
:103B2000058343B18CB920466FF0030102F06EF8B3
:103B30006FF00300F8BDFFF739FE0028F2D1DFF87F
:103B40002CC020462B4600DFF4E72378F32BEAD184
:103B5000002DE8D1002EE6DB3A4631462046FFF73D
:103B6000BFFE002808BF6FF00200E3E779390000CC
:103B700008B50246EFF305833BB110466FF005012F
:103B800002F044F86FF0050008BDFFF70FFE0028B3
:103B9000F3D1DFF808C0104600DFF5E77138000008
:103BA00070477047EFF310832BB9EFF311800038A3
:103BB00018BF01207047012070470000014BD868F2
:103BC000704700BF8C00002008B5094B1A7A022A02
:103BD00008D0032A0AD04FF0FF3002F00BF84FF064
:103BE000FF3002E003221A72002008BD0120FCE72A
:103BF0008C00002070B5484C217A012900F08A80A1
:103C000031B14FF0FF3001F0F5FF4FF0FF3070BDE4
:103C1000424D9C2204F1080016F0DAFAD5E90B6156
:103C2000EB68E3652B8AA4F854303046AB68236414
:103C300000F0F6F908B1C4F88060D5E905613046B6
:103C400000F0EEF908B9D4F880606667D5E907613D
:103C5000304600F0E5F908B9D4F88060A667D5E9E8
:103C60000961304600F0DCF908B9D4F88060E667F5
:103C70006E6B3EB1D6E902233168304600F03AFA65
:103C8000C4F88460AE6B3EB1D6E902233168304699
:103C900000F030FAC4F88860EE6B3EB1D6E902233A
:103CA0003168304600F026FAC4F88C602E6C3EB1C4
:103CB000D6E902233168304600F01CFAC4F890605F
:103CC0006E6C3EB1D6E902233168304600F012FA3C
:103CD000C4F89460AE6C3EB1D6E902233168304638
:103CE00000F008FAC4F89860EE6C3EB1D6E9022301
:103CF0003168304600F0FEF9C4F89C602D6D3DB18E
:103D0000D5E902232968284600F0F4F9C4F8A05048
:103D10000123237200207AE78C000020A8F2010022
:103D200070B5264D2B7A012B07D06FF0060001F0FD
:103D300061FF4FF0FF34204670BD01F00FFD10B958
:103D40004FF0FF30F3E71E4A1E4E1F497068FF23F5
:103D500082F8223092F82230D26863F0FF03DB430E
:103D600014BFB3FA83F32023C3F12003C2F302226A
:103D7000934298BF531CFE2202FA03F3104ADBB2AF
:103D8000D3770FF081FA04460028D9D10FF0D2FA88
:103D900028610FF0BBFA0D4801F0DAF901F052FA90
:103DA000336813F0010F4FF0020303D083F314883C
:103DB0002B72C0E7032282F31488F9E78C000020FD
:103DC00000ED00E0A8F20100A5050000A800002019
:103DD00008B50A4B1A7A023A012A02D840B10128E2
:103DE00009D04FF0FF3001F005FF4FF0FF3001E048
:103DF00002221A7208BD0322FBE700BF8C000020DC
:103E000010B5134C237A022B05D06FF0070001F098
:103E1000F1FE002010BD0FF081FA01236372BFF3A1
:103E20004F8F0C4A5168C90042BF4FF0006151608A
:103E3000A372E36A4BB1D869636C1BB11B699842EA
:103E400028BF184604232372E4E74FF0FF30F3E75E
:103E50008C00002000ED00E0F8B5214C237A042B03
:103E600005463BD1E3680344E360E36A53B1064689
:103E70000127DA69B24225D8DF61B61A01F094F958
:103E8000E36A13BB636C4BB101261869A8421FD8C3
:103E90001E61236D2D1A9847636CE3B9022300203D
:103EA000237201F0D9F900236372BFF34F8FA27A16
:103EB00022B1A3720B4B4FF080525A60BDE8F8401C
:103EC0000FF024BA921BDA61DCE7002ED1D1D9E7DA
:103ED000401B1861E2E7002DD7D1DFE7F8BD00BF36
:103EE0008C00002000ED00E07047000008B5FFF7EF
:103EF000FBFFEFF3058333B16FF0050001F07AFEAD
:103F00006FF0050008BDFFF74DFE0028F4D1DFF883
:103F100008C000DFF6E700BFF53B000008B5EFF38F
:103F2000058333B16FF0050001F064FE6FF005000A
:103F300008BDFFF737FE0028F4D1DFF808C000DF26
:103F4000F6E700BF213D000008B5EFF3058333B16C
:103F50006FF0050001F04EFE6FF0050008BDFFF7A1
:103F600021FE0028F4D1DFF808C000DFF6E700BF2B
:103F7000C93B000008B50246EFF3058333B16FF08B
:103F8000050001F037FE6FF0050008BDFFF70AFEDF
:103F90000028F4D1DFF808C0104600DFF5E700BFC5
:103FA000D13D000008B5EFF305832BB16FF005009C
:103FB00001F020FE002008BDFFF7F4FD0028F5D138
:103FC000DFF804C000DFF6E7013E000008B5024656
:103FD000EFF305832BB1BDE808406FF0050001F059
:103FE00009BEFFF7DFFD0028F5D1DFF808C0104655
:103FF00000DF08BD593E000008B5EFF3058313B19B
:10400000054BD86808BDFFF7CDFD0028F8D1DFF8D3
:104010000CC000DFF6E700BF8C000020BD3B0000B5
:1040200010B598B140EA010313F007030ED1172928
:104030000AD90160083910220C18846042600B50C4
:1040400081684A60C3600123184610BD0023FBE766
:10405000F0B5034670B369B332F003002AD10F31D3
:1040600021F0070103F10806344636686568301B05
:1040700025F00305401B814203D930680028F3D1A5
:10408000F0BD5F681D680F445F602B44083B5868B3
:10409000874288BF5F6063680A431BB9626004F1AE
:1040A0000800EDE723F00303E018E65042602060CB
:1040B0000830E5E70020E3E710B580B1C1B1A1F118
:1040C000080400F108030022A34209D1596821F035
:1040D00003044168091B41603AB95A60012010BDD0
:1040E00019681A4621B10B46EEE71B681360F5E725
:1040F0000846F4E730B5C0B189B1C2B1CBB10024F4
:10410000C0E9014202FB01F41D190160C360436173
:1041100005611846013904D1A21A995001210846B7
:1041200030BD851805602846F4E70146F7E71146DB
:10413000F5E71946F3E710B50346A8B100F11402FC
:1041400052E8000F10B9BFF32F8F04E0016842E876
:10415000001404B1F4E738B1043353E8002F511CC4
:1041600043E8001404B1F8E710BD30B5F0B1C368FE
:104170008B421BD803698B4218D900F114031A68CB
:104180000A60BFF35F8F53E8002F0C689442F6D1AA
:1041900043E8001505B1F2E7043050E8003F5A1E2D
:1041A00040E8002101B1F8E7002030BD6FF00300C6
:1041B000FBE7EFF310832BB9EFF31180003818BF42
:1041C0000120704701207047D1E9013223B19A6084
:1041D0008A681AB153607047C262F9E70363704797
:1041E0002DE9F84F8846074600B131B96FF0030159
:1041F000002001F021FD002477E0CE1C26F003060C
:104200000C36B0FA80F104D0B6FA86F30B441F2BBB
:10421000ECDD06FB07FAF2B194683CB1A30702D1CA
:10422000D368332B05D86FF00801E1E7D368002B82
:10423000F9D1D2E90453D2F800903DB115F0030B47
:1042400001D19A4554D96FF00901D1E7002BFAD179
:104250001CB19B460CE091461546274BD3F8A000B5
:10426000D8B1FFF768FF0446A0B14FF0010B35BB92
:10427000214B0022D86F5146FFF7EAFE0546C0B930
:10428000BBF1000F06D01C4BD3F8A000214658B15B
:10429000FFF76BFF6FF00401AAE7D3F8800001225B
:1042A0003421FFF7D5FEDEE7D3F88000FFF704FFE7
:1042B000F0E75246002115F08BFF4BF0020BFA237A
:1042C00023700023C4E90983C4E90B33A360324699
:1042D0002B4684F802B0C4F80490394604F10C006F
:1042E000FFF708FF044B054A1A672046BDE8F88F20
:1042F000002CE4D1B1E700BF8C0000208D4300000A
:1043000010B500F1280353E8002F12B9BFF32F8F27
:1043100004E0511E43E8001404B1F4E70AB9002098
:1043200010BDC06A01220028F9D0811CD1E84F3F9E
:10433000C1E8442F04B1F9E7DBB2002BF0D080686C
:10434000F1E7036B30B5E3B1CD780024DA78AA4207
:104350000FD31A46C1E901248AB19160A4B161600A
:10436000283050E8003F5A1C40E8002101B1F8E72E
:1043700030BD5A681C46002AECD01346E6E7C162FD
:10438000ECE7C1E90133C1620163E9E7F8B5877879
:1043900004468FB3C568014600272846FFF714FF7F
:1043A000277005F10C042046FFF7DFFEAB68002BF9
:1043B00048D02046FFF7BFFE0446002842D02846DA
:1043C00000F0C6FE3A460646394600F071FF304618
:1043D00000F01AFF6A6A8168064604F10C00FCF7D7
:1043E00067FAF9232370A770F368E3702146284623
:1043F000BDE8F840FFF7A5BF8568AB68002BF5D096
:104400005B78832BF2D1284600F0A2FE3A4606469E
:10441000394600F04DFF304600F0F6FE06466A6A67
:10442000806804F10C01FCF743FAF3680BB1E27801
:104430001A7000232370214605F10C00BDE8F840F6
:10444000FFF793BEF8BD00002DE9F0410C4617467A
:104450009846054618B10378FA2B00D141B9284691
:104460006FF0030101F0E8FB6FF00300BDE8F0819D
:104470008368C3B15B78832B15D100F069FE0122FC
:104480000646002100F014FF304600F0BDFE06464F
:104490006A6A80682146FCF70BFAF0680028E5D0CC
:1044A00007700020E2E705F10C00FFF744FE064626
:1044B00070B121466A6A0C30FCF7FAF90024F9233E
:1044C0003370B470F77031462846FFF73AFFE8E7DB
:1044D000B8F1000F10D04146932001F039F840B1F7
:1044E000074B2846596900F021FEEFF30983C3E921
:1044F00002476FF00100B9E76FF00200B6E700BFB6
:104500008C0000202DE9F0410F46154698460446E0
:1045100018B10378FA2B00D141B920466FF003019E
:1045200001F08AFB6FF00300BDE8F081FFF7E8FEC1
:10453000064600283AD001462046FFF745FE626A4B
:1045400006F10C013846FCF7B3F90DB1F3782B7086
:10455000002504F10C07357031463846FFF705FE9B
:10456000A3680BB90020DFE73846FFF7E4FD0646F5
:104570000028F7D0204600F0EBFD2946074601222F
:1045800000F096FE384600F03FFE626A81680746FA
:1045900006F10C00FCF78CF9F9233370B570FB6859
:1045A000F37031462046FFF7CCFEDBE7B8F1000F91
:1045B00010D04146832000F0CBFF40B1074B20468E
:1045C000596900F0B3FDEFF30983C3E902756FF099
:1045D0000100A9E76FF00200A6E700BF8C000020F1
:1045E00010B50446EFF3058333B100206FF00501E9
:1045F00001F022FB002010BDFFF7DBFD0028F4D105
:10460000DFF808C0204600DFF5E700BFE141000009
:104610002DE9F04106460F4690461C46EFF3058310
:104620004BB196B930466FF0030101F005FB6FF016
:104630000300BDE8F081FFF7BCFD0028F1D1DFF8F1
:104640004CC03046234600DFF3E73378FA2BE9D13C
:10465000002FE7D0002CE5D106F10C00FFF76BFD31
:10466000054680B1726A39460C30FCF721F9F9230E
:104670002846C5E901762B70AC7085F8038000F000
:1046800069FC2046D5E76FF00200D2E749440000FC
:10469000F8B504460F4616461D46EFF3058343B1B1
:1046A0008CB920466FF0030101F0C6FA6FF00300E9
:1046B000F8BDFFF77EFD0028F2D1DFF848C02046A4
:1046C0002B4600DFF4E72378FA2BEAD1002FE8D05D
:1046D000002DE6D12046FFF713FE054670B100F12C
:1046E0000C01626A3846FCF7E3F80EB1EB783370E0
:1046F0002846EC6000F02EFC0020D9E76FF00200A5
:10470000D6E700BF05450000EFF310832BB9EFF3A8
:104710001180003818BF0120704701207047000049
:1047200070B5A8B38468D0E900566CB114F00303E7
:1047300002D1C2681B2A1AD86FF00801002001F0CC
:104740006BFA0024204670BDC368002BF4D1124BD5
:10475000D3F8940030B9D3F8800001221C21FFF770
:1047600077FC01E0FFF7E7FC044660B10123F52286
:10477000A3700023C4E90233C4E904332270E67055
:1047800065602376DEE76FF0040101F045FAD9E7B2
:1047900005460646DBE700BF8C000020284B70B5BD
:1047A0005D6904460E4635B96FF0070101F034FA31
:1047B0004FF0FF3070BD10B10378F52B07D02046C5
:1047C0006FF0030101F028FA6FF00300F2E7037EB7
:1047D00053B9C0E90353EB6A436103B11861EC625A
:1047E000012323760020E5E7C278D1070DD5C16803
:1047F000A9420AD1FF2B06D16FF00F0101F00CFA8C
:104800006FF00200D6E70133EBE7002EF8D09307F4
:104810000AD5E06895F9203090F920209A4203DA11
:1048200080F8203000F0A6FC3146532000F090FEC6
:1048300018B12946204600F079FC6FF00100B9E775
:104840008C00002038B52F4B5A69044632B96FF0FE
:10485000070101F0E1F94FF0FF3038BD10B10378E6
:10486000F52B07D020466FF0030101F0D5F96FF06A
:104870000300F2E7037E33B96FF00E0101F0CCF9CB
:104880006FF00200E9E7C168914202D06FF00D01BC
:10489000F4E7013BDBB2037633BB43690BB101693B
:1048A0001961216911B34B61E3789B0705D592F932
:1048B0002110D36AE3B982F82010A3688BB1204697
:1048C00000F046FC00220546114600F0F1FC0023F2
:1048D0002361EB6AE560636103B11C610123EC6253
:1048E0002376002000F0B8FC0020B6E7D362DBE7B7
:1048F000986820B190F920008142B8BF01465B69F9
:10490000D8E700BF8C00002070B5044610B10378D2
:10491000F52B07D020466FF0030101F07DF96FF011
:10492000030070BD037ED3B16369C0680BB1226917
:104930001A6122691AB35361E3789B070BD590F98A
:104940002130C26AEAB990F920209A4203D080F857
:10495000203000F00FFCA068E0B900F07DFCA078EA
:10496000002610F001002670DBD0124BD3F89450D3
:104970002146C5B12846FFF7F8FB3046D1E7C362B0
:10498000DAE7916821B191F920108B42B8BF0B464C
:104990005269D7E7204600F0DBFB00226FF00201EE
:1049A00000F086FCD7E7D3F88000FFF785FB2846A8
:1049B000B7E700BF8C0000202DE9F0410446002637
:1049C00001270CB9BDE8F081E378D4F814801B0707
:1049D00012D5A36826767BB1204600F0B9FB0022F1
:1049E0000546114600F064FCEB6A6361C4E90356B6
:1049F00003B11C61EC6227764446E2E710B4C37849
:104A00009B071AD5C06890F92130C26A94688C421D
:104A100008BF8C6824B194F92040A342B8BF234654
:104A20005269002AF2D190F920209A4205D080F8EC
:104A300020305DF8044B00F09DBB5DF8044B7047DF
:104A400008B50246EFF3058333B100206FF005018E
:104A500001F0E2F8002008BDFFF756FE0028F4D16F
:104A6000DFF808C0104600DFF5E700BF214700006F
:104A700008B50246EFF305833BB110466FF0050120
:104A800001F0CAF86FF0050008BDFFF73DFE0028F1
:104A9000F3D1DFF808C0104600DFF5E79D470000BE
:104AA00008B50246EFF305833BB110466FF00501F0
:104AB00001F0B2F86FF0050008BDFFF725FE0028F1
:104AC000F3D1DFF808C0104600DFF5E745480000E5
:104AD00008B50246EFF305833BB110466FF00501C0
:104AE00001F09AF86FF0050008BDFFF70DFE0028F1
:104AF000F3D1DFF808C0104600DFF5E709490000F0
:104B0000EFF310832BB9EFF31180003818BF0120A9
:104B10007047012070470C30D0E85F3F13B9BFF3F6
:104B20002F8F04E05A1EC0E8512F01B1F4E798B26C
:104B3000003818BF0120704730B500F10C02C18960
:104B4000D2E85F3F994202D8BFF32F8F04E05C1C8C
:104B5000C2E8554F05B1F3E7C0899BB2984294BFB4
:104B60000020012030BD0000F8B515464FF6FE7359
:104B7000421E9A4206460F4601D8884207D26FF07D
:104B80000301002001F04EF800242046F8BD7DB15D
:104B9000AC682A6844B114F0030302D1E9680F2914
:104BA00022D86FF00801ECE7EB68002BF9D115462D
:104BB000114BD3F8980080B1FFF7BDFA0446A8B1B5
:104BC0000123A3700023F622A3600B4B22700B4A33
:104BD0006560A781E6819A66D7E7D3F88000012255
:104BE0001021FFF735FAE9E71546EAE76FF004010F
:104BF00001F018F8C9E700BF8C000020714C0000DC
:104C000070B5054610B10378F62B07D028466FF033
:104C1000030101F007F86FF0030070BD836863B112
:104C2000284600F095FA00226FF0020100F040FBE8
:104C3000A8680028F4D100F00FFBAB78002613F031
:104C400001032E700FD0094BD3F89840294624B1A8
:104C50002046FFF78AFA3046DFE7D3F88000FFF7F7
:104C60002BFA2046D9E71846D7E700BF8C00002072
:104C7000836810B504465BB1FFF74DFF40B1204695
:104C800000F066FA0022BDE81040114600F010BBAB
:104C900010BD38B5054610B10378F62B07D028466D
:104CA0006FF0030100F0BEFF6FF0030038BD8468B1
:104CB0003CB100F04DFA0122002100F0F9FA002089
:104CC000F4E7FFF739FF38B928466FF0100100F01C
:104CD000A9FF6FF00200E9E72046E7E738B50D4687
:104CE000044610B10378F62B07D020466FF003017D
:104CF00000F098FF6FF0030038BDFFF70CFF68B9B4
:104D000075B12946632000F023FC20B1064B2046F4
:104D1000596900F00BFA6FF00100EDE70020EBE7B6
:104D20006FF00200E8E700BF8C00002010B50446D9
:104D3000EFF3058333B100206FF0050100F072FF3F
:104D4000002010BDFFF7DCFE0028F4D1DFF808C01A
:104D5000204600DFF5E700BF694B000010B50246B2
:104D60000C46EFF3058343B182B910466FF003019F
:104D700000F058FF6FF0030010BDFFF7C1FE0028E0
:104D8000F2D1DFF824C0104600DFF5E71378F62BE8
:104D9000EBD1002CE9D11046FFF7BDFE002814BF6F
:104DA00000206FF00200E7E7DD4C000010B504467C
:104DB000EFF3058343B184B920466FF0030100F09F
:104DC00031FF6FF0030010BDFFF79AFE0028F2D10B
:104DD000DFF830C0204600DFF5E72378F62BEBD173
:104DE0002046FFF7A9FE20B1204600F0B3F80020CE
:104DF000E9E720466FF0100100F014FF6FF00200A9
:104E0000E1E700BF934C000008B50246EFF30583CD
:104E10003BB110466FF0050100F004FF6FF0050094
:104E200008BDFFF76DFE0028F3D1DFF808C010467B
:104E300000DFF5E7014C000010B5D0E85F3F5A1CD9
:104E4000914200D80022C0E8542F04B1F5E798B28F
:104E500010BD000038B51A4C0EF066FAE368013355
:104E6000E360236D03B1984700F09EF9002000F045
:104E7000F3F9236C1BB3A26BA1698A4202D0A16330
:104E8000E3631CE0E36BB3B9237A022B17D1656AA5
:104E9000ADB195F9201092F9203099420FD12846F2
:104EA00000F05FF9A06B00F077F9284600F0CAF92E
:104EB000236CA563E4E7013BE363002BE4D038BD3A
:104EC0008C00002070B5224C04F1560504F15A06FE
:104ED000B4F85410D5E85F3F13B9BFF32F8F04E047
:104EE0005A1EC5E8502F00B1F4E79BB25BB33046C1
:104EF000FFF7A2FFE36D53F8200020B30378F13BE6
:104F0000082BE5D801A252F823F000BF314F000072
:104F1000D14E0000374F0000D14E0000D14E0000AE
:104F20003B4F00003F4F0000D14E0000434F0000B8
:104F3000236E9847CCE7636EFBE7A36EF9E7E36E59
:104F4000F7E7236FF5E7BDE87040002000F084B973
:104F50008C00002070B5164C0546B4F8541004F1CE
:104F60005602D2E85F3F994202D8BFF32F8F04E088
:104F7000581CC2E8560F06B1F3E79BB2994205D818
:104F800029460220BDE8704000F0F6BD04F158004B
:104F9000FFF752FFE36D43F82050637A23B9054BC6
:104FA0004FF080525A6070BD0123A372FBE700BF2F
:104FB0008C00002000ED00E0EFF310832BB9EFF33D
:104FC0001180003818BF0120704701207047037816
:104FD000F12B00D07047C068F9E7000010B50A4A0D
:104FE00090F9201001234370536A1C321BB193F9CE
:104FF00020408C4205DCC0E90232906003B1D860E9
:1050000010BD1A469B68F1E78C000020014B5869DF
:10501000704700BF8C00002010B500230380837808
:105020009A07044608D513F0100F016B0E4B0FD0F2
:10503000D3F88400FFF799F8A378DB0712D50A4B61
:10504000D3F88800214638B1BDE81040FFF78DB88D
:10505000586FFFF731F8EFE7BDE81040D3F8800054
:10506000FFF72AB810BD00BF8C00002008B500F083
:10507000E9FDDFF810C000DF4FF0FF31002000F045
:10508000BFFDFEE73556000010B5C469621CD0E9CB
:1050900004310AD103B1596142691AB11361002385
:1050A000436101E0064A136310BD1BB1DA6959611F
:1050B0002244DA614269002AF0D1014AD362F3E75F
:1050C0008C000020930710B502F0010422D400F1F7
:1050D000280384B153E8000F00EA01028A4203D09A
:1050E000BFF32F8F002005E020EA010243E80024EF
:1050F00004B1EFE710BD53E8000F084203D1BFF33E
:105100002F8F002005E020EA010243E8002404B1CB
:10511000F1E7EFE7806A01EA00031CB18B4218BF98
:105120000020E7E7002B08BF0020E3E710B591F966
:10513000202083681BB193F92040944205DAC1E92D
:105140000230816003B1D96010BD18469B68F1E759
:1051500083689A68826002B1D0600022DA601846E3
:105160007047C2682AB18368936003B1DA60002394
:10517000C360704710B5044664B12378F12B07D0A3
:10518000FFF7EFFF01462046BDE81040FFF7CEBF16
:10519000E468F1E710BD00000123014643700148B7
:1051A000FFF7C4BFA800002038B5164DEC6A44B321
:1051B000E369013BE36123BB6378732B06D009D815
:1051C000532B0BD003F0DF03432B0DD12046FFF709
:1051D000FEFE09E003F0EF03832BF6E72046FFF71E
:1051E000F6FE2146FFF70AFC2046FFF7BAFFFFF75D
:1051F000D3FF246924B1E369002BDDD00023636170
:10520000EC6238BD8C00002090F82230826B13F0E5
:10521000100F0CBF6020202010447047074B5969C5
:1052200051B10B6B8A6B934203D21A68044B9A42BA
:1052300002D0012000F0A0BC704700BF8C0000200D
:10524000A52E5AE208B502234370024B9861FFF77E
:10525000E5FF08BD8C00002010B5144B04461A7AF7
:105260005969A0B9022A1FD15C6AECB194F92020D7
:1052700091F920309A4217DD2046FFF772FF084669
:10528000FFF7ACFE2046BDE81040FFF7DBBF022A67
:1052900005D190F9202091F920309A42EFDC204688
:1052A000BDE81040FFF778BF10BD00BF8C000020A4
:1052B00038B505461446FFF7A7FF01602846FFF7FB
:1052C000E3FE1CB1BDE83840FFF7C6BFBDE838407B
:1052D000FFF762BF10B54378332B04460CD1416A07
:1052E00090F82320FFF7EEFE014628B12046002269
:1052F000BDE81040FFF7DCBF10BD70B5044620B11B
:105300000378F12B01D1002908DA6FF00301204660
:10531000FEF746FC6FF00305284670BD4378042B6A
:1053200006D16FF00201FEF73BFC6FF00205F3E7D8
:1053300000F1280353E8002F42EA010543E8005634
:1053400006B1F7E74378332BE6D1416A90F8232082
:10535000FFF7B8FE01460028DED094F823309B0703
:1053600056BF656A054620EA050501222046FFF77B
:105370009FFFD1E72DE9F04F85B00391019028B947
:105380006FF0030100F03CFC0024BEE0002A4AD08C
:10539000966846B1B00702D1D368432B06D86FF0A8
:1053A00008010020EEE7D368002BF8D1D2E90449C8
:1053B000976944B1610703D1B9F1000F40F0B180A2
:1053C0006FF00A01EDE72FB1791E372903D96FF08D
:1053D0000B01E6E71827B9F1000F40F0A680D2E9EB
:1053E00000B3029366BB554DD5F8880008B3FEF7AD
:1053F000A2FE064600283DD04FF00108DFF83CA190
:10540000002C42D1B9F1000F1DD14D4BDAF88400C8
:10541000D3F85490B8B1FEF78EFE0546E0B148F0DF
:105420001008344623E0934614461827914602920A
:10543000D9E7D5F8800001224421FEF709FED8E71C
:105440004FF00008DAE7DAF8740022464946FEF722
:10545000FFFD05460028E4D1B8F1000F13D0DAF8BB
:10546000885031464DB12846FEF77FFE002548F0B2
:10547000020864B96FF0040193E7DAF88000FEF7E0
:105480001BFE2C46F3E74546F1E72546344640F23D
:10549000F11222800022C4E90222C4E90422C4E9F4
:1054A0000622C4E90922C4E90B25A9F14002029BA6
:1054B000E3702A44019BA2637FB2224AE363FD2189
:1054C00084F80280C4F804B084F8207084F8217055
:1054D0006184C4F834902A60194A1268530718D4BA
:1054E000A36B34221846002114F072FE164A426360
:1054F000019A82634FF08072C263039A0262134B77
:10550000CAF860302046FFF7A7FE204605B0BDE888
:10551000F08F29F00302443ACC21281D14F058FEE4
:10552000DEE7002F7FF450AF182719F0070F7FF444
:1055300047AFB9F1470F3FF652AF41E78C0000206B
:10554000A8F20100A52E5AE26D500000D5520000CD
:1055500038B51E4C237A022B34D1636A002B33D02A
:1055600063694A1C587015D1226B00216AB94FF04B
:10557000FF30C3E90421D86151B10B611448FFF732
:10558000E7FDFFF75FFE012038BD11461269EDE728
:105590002363F3E7E26A002012B1D569A9420BD276
:1055A000C3E90420D96158B10361002AE6D0D0696B
:1055B0005361411AD161E1E71046491B1269EBE7DB
:1055C000E362F2E70020DFE71846DDE78C00002009
:1055D000A8000020F8B5164B5C6905460F46164634
:1055E0003CB920466FF00701FEF7DAFA4FF0FF30C2
:1055F000F8BD002807DA20466FF00301FEF7D0FA65
:105600006FF00300F4E70A4601462046FFF75AFD13
:105610000028EDD14EB1656284F823703146332005
:10562000FFF796FF6FF00100E2E76FF00200DFE79F
:105630008C00002038B5154D2B7A022B25D16B6AD2
:105640001BB36C69E06AFFF7B7F9A06918B10022D3
:105650001146FFF72DFEEFF309830D48A363FFF713
:1056600077FDFFF7EFFD00236B61E278D20704D4EA
:105670002046BDE83840FFF7CFBC04226270E360EB
:105680006B6BA36003B1DC606C6338BD8C000020E1
:10569000A800002038B5044610B10378F12B07D0DC
:1056A00020466FF0030100F0ABFA6FF0030038BD45
:1056B000437803F00F03022B25D0032B32D0012BAC
:1056C00035D1FFF74EFDE06AFFF776F9A06918B112
:1056D00000221146FFF7ECFD6378022B2AD1EFF38D
:1056E00009831C48A363FFF733FDFFF7ABFD1A4B9B
:1056F00000225A61E07810F001051FD12046FFF723
:105700008BFC0020D3E7144B1A7A022A02D15B6A81
:10571000002BD8D16FF00201204600F071FA6FF033
:105720000200C4E7FFF71DFDFFF7AEFCCBE76FF00B
:105730000201F2E70020FFF78FFDDBE70423064AB2
:1057400063700023E360536BA36003B1DC605463B8
:10575000D7E700BFA80000208C00002038B50B4C14
:105760000B48A26D0B4D0021FFF704FE636EA8628B
:105770004BB1E26D08480021FFF7FCFDA86400383A
:1057800018BF012038BD0120FCE700BFA8F20100CE
:10579000715B00008C0000205959000010B50446D0
:1057A000EFF3058333B100206FF0050100F028FA14
:1057B000002010BDFFF700FC0028F4D1DFF808C07E
:1057C000204600DFF5E700BF7553000008B5EFF392
:1057D000058313B1054B586908BDFFF7EDFB0028A1
:1057E000F8D1DFF80CC000DFF6E700BF8C00002026
:1057F0000D50000010B5044600F030FAEFF30583B9
:105800003BB120466FF0050100F0FAF96FF005009A
:1058100010BDFFF7D1FB0028F3D1DFF808C0204608
:1058200000DFF5E79556000038B502460D46EFF368
:1058300005834BB192B96FF003011046FEF7B0F942
:105840006FF00304204638BDFFF7B6FB0028F1D106
:10585000DFF844C0104600DF0446F3E71378F12B6D
:10586000E9D1002DE7DB5378042B07D16FF002015B
:105870001046FEF795F96FF00204E3E702F1280302
:1058800053E8001F41EA050443E8004000B1F7E790
:105890001046FFF75FFBD5E7FB52000010B504464A
:1058A000EFF305833BB100206FF00501FEF778F9B7
:1058B0006FF0050010BDFFF77FFB0028F3D1DFF884
:1058C00008C0204600DFF5E7D555000030B50C4D87
:1058D0006B6C002213B11C698C420AD9C0E9022307
:1058E00001611BB11C699860611A19612AB1D0600D
:1058F00030BD1A46091BDB68ECE76864F8E700BFB7
:105900008C00002070B5134D6C6C04B32369013B0F
:10591000236101262369D3B9E3680BB1A2689A60B9
:105920006B640023E86C1A4604F11801FEF770FE60
:1059300018B12146032000F01FF9E378012B07D1AD
:1059400061692046FFF7C2FF6C6C002CE2D170BD8C
:105950006670F9E78C0000200B4B0C4C07B51A6EF3
:10596000586E0821FEF73CFE094BE0642365E06CAD
:105970004FF0FF3300226946FEF78AFE0028F6D179
:10598000DDE900309847F2E7A8F201008C00002022
:105990000559000008B5094B094A1A60094B9B1AC2
:1059A000094A1360094B0A4A1A600A4B9B1A0A4AB1
:1059B000136000F051F800F07BF800BFB41700202E
:1059C00000FC022000000320B0170020F0E20020BD
:1059D00000EC002000FC0220ECE200200E4838B56C
:1059E0000E4B03600B250E4B45601C24C460836086
:1059F000FFF726F80B4B18600B480C4BC460C0E94E
:105A000000350B4B8360FFF71BF80A4B1860BDE8AD
:105A1000384013F0D3BF00BF80170020DCF901002D
:105A2000941700209017002050170020E9F901007A
:105A30006417002060170020FCF79CB8024B4FF061
:105A4000FF311868FFF714B890170020014B186851
:105A5000FFF726B890170020094A0A4938B595681B
:105A600008460023EC5840F8044B0433B3F5CC7FD0
:105A7000F8D191600AF084FCBDE8384000F015B818
:105A800000ED00E00000FF1F7047704708B500F010
:105A900043F8FFF7F9FFFFF7A1FFFFF7F6FF0AF062
:105AA0000BFABDE80840FFF7C7BFFEF71FBA0000BA
:105AB000114C124B23614FF4805363614423E36024
:105AC0000F4BA360182307B5A3610E480E4B23604C
:105AD00022460021FFF762FE034628B90B490090D9
:105AE00022460B480AF028FAFEF718FA0023094963
:105AF00000931A46F5E700BFB8270020B81700202A
:105B0000DC2700208D5A000003FA010008FA01008A
:105B10001D01018024FA01001FB5064B0FCB6C4616
:105B200084E80F002046FEF78BFF034B186004B09B
:105B300010BD00BF10F301002028002073B50646F9
:105B40000C4615460AF0EAF958B906342ABF064B46
:105B5000064953F8241000230093324628460AF0E1
:105B6000EBF902B070BD00BFECFB010041FB01008E
:105B700008B50DF0E3FB000007B50023421E0093BB
:105B80000023042A19D8DFE802F003080C101400DF
:105B90000C490D4801220AF0CFF90C490C480222A9
:105BA000F9E70C490C480322F5E70C490C4804229C
:105BB000F1E70C490C480522EDE702460B490C4879
:105BC000E9E700BF39FA0100250102805AFA010015
:105BD000260102807FFA010027010280B4FA010049
:105BE00028010280EFFA01002A0102802FFB010048
:105BF00000010280014A0146FFF7A0BF3101018088
:105C0000014AFFF79BBF00BF32010180014AFFF745
:105C100095BF00BF37010180014AFFF78FBF00BF6A
:105C20003301018011F1110F02D0024AFFF786BF44
:105C3000704700BF34010180014AFFF77FBF00BFFA
:105C40003801018010B5FFF7C1FD034B1B6813B18C
:105C5000BDE81040184710BD40280020024B1B68CB
:105C600003B11847704700BF4028002030B595B0F9
:105C70002022002102A814F0ABFA002313934FF066
:105C8000FF330393454B01211A889B788DF812301E
:105C9000ADF813208DF81530ADF816208DF81830BA
:105CA000ADF819208DF81B300191ADF8102001AD31
:105CB0008DF824100FCD0AAC0FC40FCD0FC42B6884
:105CC000374823600AA90CF0EDF9364A936B43F488
:105CD00000639363936B43F480639363324B196C5B
:105CE00021F4E06141F480611964596C21F4E061B0
:105CF00041F480615964996C21F4E06141F4806160
:105D00009964D96C21F4E06141F48061D964274938
:105D10004B6823F4E06343F480634B60936B43F47C
